{"abi":[{"inputs":[{"internalType":"uint256","name":"minContributionInEth","type":"uint256"},{"internalType":"address","name":"creator","type":"address"}],"stateMutability":"nonpayable","type":"constructor"},{"inputs":[{"internalType":"uint256","name":"requestIndex","type":"uint256"}],"name":"approveRequest","outputs":[],"stateMutability":"nonpayable","type":"function"},{"inputs":[{"internalType":"address","name":"","type":"address"}],"name":"approvers","outputs":[{"internalType":"bool","name":"","type":"bool"}],"stateMutability":"view","type":"function"},{"inputs":[],"name":"approversCount","outputs":[{"internalType":"uint256","name":"","type":"uint256"}],"stateMutability":"view","type":"function"},{"inputs":[],"name":"contribute","outputs":[],"stateMutability":"payable","type":"function"},{"inputs":[{"internalType":"string","name":"description","type":"string"},{"internalType":"uint256","name":"amount","type":"uint256"},{"internalType":"address","name":"recipient","type":"address"}],"name":"createRequest","outputs":[],"stateMutability":"nonpayable","type":"function"},{"inputs":[{"internalType":"uint256","name":"requestIndex","type":"uint256"}],"name":"finalizeRequest","outputs":[],"stateMutability":"nonpayable","type":"function"},{"inputs":[],"name":"manager","outputs":[{"internalType":"address","name":"","type":"address"}],"stateMutability":"view","type":"function"},{"inputs":[{"internalType":"uint256","name":"","type":"uint256"}],"name":"requests","outputs":[{"internalType":"string","name":"description","type":"string"},{"internalType":"uint256","name":"amount","type":"uint256"},{"internalType":"address","name":"recipient","type":"address"},{"internalType":"bool","name":"completed","type":"bool"},{"internalType":"uint256","name":"approvalCount","type":"uint256"}],"stateMutability":"view","type":"function"}],"devdoc":{"kind":"dev","methods":{},"version":1},"evm":{"assembly":"    /* \"Campaign.sol\":542:3198  contract Campaign... */\n  mstore(0x40, 0x80)\n    /* \"Campaign.sol\":1143:1327  constructor(uint minContributionInEth, address creator) ... */\n  callvalue\n  dup1\n  iszero\n  tag_1\n  jumpi\n  0x00\n  dup1\n  revert\ntag_1:\n  pop\n  mload(0x40)\n  sub(codesize, bytecodeSize)\n  dup1\n  bytecodeSize\n  dup4\n  codecopy\n  dup2\n  dup2\n  add\n  0x40\n  mstore\n  dup2\n  add\n  swap1\n  tag_2\n  swap2\n  swap1\n  tag_3\n  jump\t// in\ntag_2:\n    /* \"Campaign.sol\":1256:1263  creator */\n  dup1\n    /* \"Campaign.sol\":1246:1253  manager */\n  0x00\n  dup1\n    /* \"Campaign.sol\":1246:1263  manager = creator */\n  0x0100\n  exp\n  dup2\n  sload\n  dup2\n  0xffffffffffffffffffffffffffffffffffffffff\n  mul\n  not\n  and\n  swap1\n  dup4\n  0xffffffffffffffffffffffffffffffffffffffff\n  and\n  mul\n  or\n  swap1\n  sstore\n  pop\n    /* \"Campaign.sol\":1300:1320  minContributionInEth */\n  dup2\n    /* \"Campaign.sol\":1273:1297  minimumContributionInEth */\n  0x03\n    /* \"Campaign.sol\":1273:1320  minimumContributionInEth = minContributionInEth */\n  dup2\n  swap1\n  sstore\n  pop\n    /* \"Campaign.sol\":1143:1327  constructor(uint minContributionInEth, address creator) ... */\n  pop\n  pop\n    /* \"Campaign.sol\":542:3198  contract Campaign... */\n  jump(tag_6)\n    /* \"#utility.yul\":88:205   */\ntag_8:\n    /* \"#utility.yul\":197:198   */\n  0x00\n    /* \"#utility.yul\":194:195   */\n  dup1\n    /* \"#utility.yul\":187:199   */\n  revert\n    /* \"#utility.yul\":334:411   */\ntag_10:\n    /* \"#utility.yul\":371:378   */\n  0x00\n    /* \"#utility.yul\":400:405   */\n  dup2\n    /* \"#utility.yul\":389:405   */\n  swap1\n  pop\n    /* \"#utility.yul\":334:411   */\n  swap2\n  swap1\n  pop\n  jump\t// out\n    /* \"#utility.yul\":417:539   */\ntag_11:\n    /* \"#utility.yul\":490:514   */\n  tag_23\n    /* \"#utility.yul\":508:513   */\n  dup2\n    /* \"#utility.yul\":490:514   */\n  tag_10\n  jump\t// in\ntag_23:\n    /* \"#utility.yul\":483:488   */\n  dup2\n    /* \"#utility.yul\":480:515   */\n  eq\n    /* \"#utility.yul\":470:533   */\n  tag_24\n  jumpi\n    /* \"#utility.yul\":529:530   */\n  0x00\n    /* \"#utility.yul\":526:527   */\n  dup1\n    /* \"#utility.yul\":519:531   */\n  revert\n    /* \"#utility.yul\":470:533   */\ntag_24:\n    /* \"#utility.yul\":417:539   */\n  pop\n  jump\t// out\n    /* \"#utility.yul\":545:688   */\ntag_12:\n    /* \"#utility.yul\":602:607   */\n  0x00\n    /* \"#utility.yul\":633:639   */\n  dup2\n    /* \"#utility.yul\":627:640   */\n  mload\n    /* \"#utility.yul\":618:640   */\n  swap1\n  pop\n    /* \"#utility.yul\":649:682   */\n  tag_26\n    /* \"#utility.yul\":676:681   */\n  dup2\n    /* \"#utility.yul\":649:682   */\n  tag_11\n  jump\t// in\ntag_26:\n    /* \"#utility.yul\":545:688   */\n  swap3\n  swap2\n  pop\n  pop\n  jump\t// out\n    /* \"#utility.yul\":694:820   */\ntag_13:\n    /* \"#utility.yul\":731:738   */\n  0x00\n    /* \"#utility.yul\":771:813   */\n  0xffffffffffffffffffffffffffffffffffffffff\n    /* \"#utility.yul\":764:769   */\n  dup3\n    /* \"#utility.yul\":760:814   */\n  and\n    /* \"#utility.yul\":749:814   */\n  swap1\n  pop\n    /* \"#utility.yul\":694:820   */\n  swap2\n  swap1\n  pop\n  jump\t// out\n    /* \"#utility.yul\":826:922   */\ntag_14:\n    /* \"#utility.yul\":863:870   */\n  0x00\n    /* \"#utility.yul\":892:916   */\n  tag_29\n    /* \"#utility.yul\":910:915   */\n  dup3\n    /* \"#utility.yul\":892:916   */\n  tag_13\n  jump\t// in\ntag_29:\n    /* \"#utility.yul\":881:916   */\n  swap1\n  pop\n    /* \"#utility.yul\":826:922   */\n  swap2\n  swap1\n  pop\n  jump\t// out\n    /* \"#utility.yul\":928:1050   */\ntag_15:\n    /* \"#utility.yul\":1001:1025   */\n  tag_31\n    /* \"#utility.yul\":1019:1024   */\n  dup2\n    /* \"#utility.yul\":1001:1025   */\n  tag_14\n  jump\t// in\ntag_31:\n    /* \"#utility.yul\":994:999   */\n  dup2\n    /* \"#utility.yul\":991:1026   */\n  eq\n    /* \"#utility.yul\":981:1044   */\n  tag_32\n  jumpi\n    /* \"#utility.yul\":1040:1041   */\n  0x00\n    /* \"#utility.yul\":1037:1038   */\n  dup1\n    /* \"#utility.yul\":1030:1042   */\n  revert\n    /* \"#utility.yul\":981:1044   */\ntag_32:\n    /* \"#utility.yul\":928:1050   */\n  pop\n  jump\t// out\n    /* \"#utility.yul\":1056:1199   */\ntag_16:\n    /* \"#utility.yul\":1113:1118   */\n  0x00\n    /* \"#utility.yul\":1144:1150   */\n  dup2\n    /* \"#utility.yul\":1138:1151   */\n  mload\n    /* \"#utility.yul\":1129:1151   */\n  swap1\n  pop\n    /* \"#utility.yul\":1160:1193   */\n  tag_34\n    /* \"#utility.yul\":1187:1192   */\n  dup2\n    /* \"#utility.yul\":1160:1193   */\n  tag_15\n  jump\t// in\ntag_34:\n    /* \"#utility.yul\":1056:1199   */\n  swap3\n  swap2\n  pop\n  pop\n  jump\t// out\n    /* \"#utility.yul\":1205:1712   */\ntag_3:\n    /* \"#utility.yul\":1284:1290   */\n  0x00\n    /* \"#utility.yul\":1292:1298   */\n  dup1\n    /* \"#utility.yul\":1341:1343   */\n  0x40\n    /* \"#utility.yul\":1329:1338   */\n  dup4\n    /* \"#utility.yul\":1320:1327   */\n  dup6\n    /* \"#utility.yul\":1316:1339   */\n  sub\n    /* \"#utility.yul\":1312:1344   */\n  slt\n    /* \"#utility.yul\":1309:1428   */\n  iszero\n  tag_36\n  jumpi\n    /* \"#utility.yul\":1347:1426   */\n  tag_37\n  tag_8\n  jump\t// in\ntag_37:\n    /* \"#utility.yul\":1309:1428   */\ntag_36:\n    /* \"#utility.yul\":1467:1468   */\n  0x00\n    /* \"#utility.yul\":1492:1556   */\n  tag_38\n    /* \"#utility.yul\":1548:1555   */\n  dup6\n    /* \"#utility.yul\":1539:1545   */\n  dup3\n    /* \"#utility.yul\":1528:1537   */\n  dup7\n    /* \"#utility.yul\":1524:1546   */\n  add\n    /* \"#utility.yul\":1492:1556   */\n  tag_12\n  jump\t// in\ntag_38:\n    /* \"#utility.yul\":1482:1556   */\n  swap3\n  pop\n    /* \"#utility.yul\":1438:1566   */\n  pop\n    /* \"#utility.yul\":1605:1607   */\n  0x20\n    /* \"#utility.yul\":1631:1695   */\n  tag_39\n    /* \"#utility.yul\":1687:1694   */\n  dup6\n    /* \"#utility.yul\":1678:1684   */\n  dup3\n    /* \"#utility.yul\":1667:1676   */\n  dup7\n    /* \"#utility.yul\":1663:1685   */\n  add\n    /* \"#utility.yul\":1631:1695   */\n  tag_16\n  jump\t// in\ntag_39:\n    /* \"#utility.yul\":1621:1695   */\n  swap2\n  pop\n    /* \"#utility.yul\":1576:1705   */\n  pop\n    /* \"#utility.yul\":1205:1712   */\n  swap3\n  pop\n  swap3\n  swap1\n  pop\n  jump\t// out\n    /* \"Campaign.sol\":542:3198  contract Campaign... */\ntag_6:\n  dataSize(sub_0)\n  dup1\n  dataOffset(sub_0)\n  0x00\n  codecopy\n  0x00\n  return\nstop\n\nsub_0: assembly {\n        /* \"Campaign.sol\":542:3198  contract Campaign... */\n      mstore(0x40, 0x80)\n      jumpi(tag_1, lt(calldatasize, 0x04))\n      shr(0xe0, calldataload(0x00))\n      dup1\n      0x82fde093\n      gt\n      tag_10\n      jumpi\n      dup1\n      0x82fde093\n      eq\n      tag_6\n      jumpi\n      dup1\n      0x8a9cfd55\n      eq\n      tag_7\n      jumpi\n      dup1\n      0xd7bb99ba\n      eq\n      tag_8\n      jumpi\n      dup1\n      0xd7d1bbdb\n      eq\n      tag_9\n      jumpi\n      jump(tag_1)\n    tag_10:\n      dup1\n      0x03441006\n      eq\n      tag_2\n      jumpi\n      dup1\n      0x0a144391\n      eq\n      tag_3\n      jumpi\n      dup1\n      0x481c6a75\n      eq\n      tag_4\n      jumpi\n      dup1\n      0x81d12c58\n      eq\n      tag_5\n      jumpi\n    tag_1:\n      0x00\n      dup1\n      revert\n        /* \"Campaign.sol\":2823:3195  function finalizeRequest(uint requestIndex) public restricted... */\n    tag_2:\n      callvalue\n      dup1\n      iszero\n      tag_11\n      jumpi\n      0x00\n      dup1\n      revert\n    tag_11:\n      pop\n      tag_12\n      0x04\n      dup1\n      calldatasize\n      sub\n      dup2\n      add\n      swap1\n      tag_13\n      swap2\n      swap1\n      tag_14\n      jump\t// in\n    tag_13:\n      tag_15\n      jump\t// in\n    tag_12:\n      stop\n        /* \"Campaign.sol\":906:948  mapping(address => bool)  public approvers */\n    tag_3:\n      callvalue\n      dup1\n      iszero\n      tag_16\n      jumpi\n      0x00\n      dup1\n      revert\n    tag_16:\n      pop\n      tag_17\n      0x04\n      dup1\n      calldatasize\n      sub\n      dup2\n      add\n      swap1\n      tag_18\n      swap2\n      swap1\n      tag_19\n      jump\t// in\n    tag_18:\n      tag_20\n      jump\t// in\n    tag_17:\n      mload(0x40)\n      tag_21\n      swap2\n      swap1\n      tag_22\n      jump\t// in\n    tag_21:\n      mload(0x40)\n      dup1\n      swap2\n      sub\n      swap1\n      return\n        /* \"Campaign.sol\":878:900  address public manager */\n    tag_4:\n      callvalue\n      dup1\n      iszero\n      tag_23\n      jumpi\n      0x00\n      dup1\n      revert\n    tag_23:\n      pop\n      tag_24\n      tag_25\n      jump\t// in\n    tag_24:\n      mload(0x40)\n      tag_26\n      swap2\n      swap1\n      tag_27\n      jump\t// in\n    tag_26:\n      mload(0x40)\n      dup1\n      swap2\n      sub\n      swap1\n      return\n        /* \"Campaign.sol\":1021:1046  Request[] public requests */\n    tag_5:\n      callvalue\n      dup1\n      iszero\n      tag_28\n      jumpi\n      0x00\n      dup1\n      revert\n    tag_28:\n      pop\n      tag_29\n      0x04\n      dup1\n      calldatasize\n      sub\n      dup2\n      add\n      swap1\n      tag_30\n      swap2\n      swap1\n      tag_14\n      jump\t// in\n    tag_30:\n      tag_31\n      jump\t// in\n    tag_29:\n      mload(0x40)\n      tag_32\n      swap6\n      swap5\n      swap4\n      swap3\n      swap2\n      swap1\n      tag_33\n      jump\t// in\n    tag_32:\n      mload(0x40)\n      dup1\n      swap2\n      sub\n      swap1\n      return\n        /* \"Campaign.sol\":954:980  uint public approversCount */\n    tag_6:\n      callvalue\n      dup1\n      iszero\n      tag_34\n      jumpi\n      0x00\n      dup1\n      revert\n    tag_34:\n      pop\n      tag_35\n      tag_36\n      jump\t// in\n    tag_35:\n      mload(0x40)\n      tag_37\n      swap2\n      swap1\n      tag_38\n      jump\t// in\n    tag_37:\n      mload(0x40)\n      dup1\n      swap2\n      sub\n      swap1\n      return\n        /* \"Campaign.sol\":1546:2534  function createRequest(string calldata description, uint amount, address recipient) public restricted... */\n    tag_7:\n      callvalue\n      dup1\n      iszero\n      tag_39\n      jumpi\n      0x00\n      dup1\n      revert\n    tag_39:\n      pop\n      tag_40\n      0x04\n      dup1\n      calldatasize\n      sub\n      dup2\n      add\n      swap1\n      tag_41\n      swap2\n      swap1\n      tag_42\n      jump\t// in\n    tag_41:\n      tag_43\n      jump\t// in\n    tag_40:\n      stop\n        /* \"Campaign.sol\":1333:1540  function contribute() public payable... */\n    tag_8:\n      tag_44\n      tag_45\n      jump\t// in\n    tag_44:\n      stop\n        /* \"Campaign.sol\":2540:2817  function approveRequest(uint requestIndex) public ... */\n    tag_9:\n      callvalue\n      dup1\n      iszero\n      tag_46\n      jumpi\n      0x00\n      dup1\n      revert\n    tag_46:\n      pop\n      tag_47\n      0x04\n      dup1\n      calldatasize\n      sub\n      dup2\n      add\n      swap1\n      tag_48\n      swap2\n      swap1\n      tag_14\n      jump\t// in\n    tag_48:\n      tag_49\n      jump\t// in\n    tag_47:\n      stop\n        /* \"Campaign.sol\":2823:3195  function finalizeRequest(uint requestIndex) public restricted... */\n    tag_15:\n        /* \"Campaign.sol\":1111:1118  manager */\n      0x00\n      dup1\n      sload\n      swap1\n      0x0100\n      exp\n      swap1\n      div\n      0xffffffffffffffffffffffffffffffffffffffff\n      and\n        /* \"Campaign.sol\":1097:1118  msg.sender == manager */\n      0xffffffffffffffffffffffffffffffffffffffff\n      and\n        /* \"Campaign.sol\":1097:1107  msg.sender */\n      caller\n        /* \"Campaign.sol\":1097:1118  msg.sender == manager */\n      0xffffffffffffffffffffffffffffffffffffffff\n      and\n      eq\n        /* \"Campaign.sol\":1089:1119  require(msg.sender == manager) */\n      tag_51\n      jumpi\n      0x00\n      dup1\n      revert\n    tag_51:\n        /* \"Campaign.sol\":2899:2922  Request storage request */\n      0x00\n        /* \"Campaign.sol\":2925:2933  requests */\n      0x04\n        /* \"Campaign.sol\":2934:2946  requestIndex */\n      dup3\n        /* \"Campaign.sol\":2925:2947  requests[requestIndex] */\n      dup2\n      sload\n      dup2\n      lt\n      tag_53\n      jumpi\n      tag_54\n      tag_55\n      jump\t// in\n    tag_54:\n    tag_53:\n      swap1\n      0x00\n      mstore\n      keccak256(0x00, 0x20)\n      swap1\n      0x05\n      mul\n      add\n        /* \"Campaign.sol\":2899:2947  Request storage request = requests[requestIndex] */\n      swap1\n      pop\n        /* \"Campaign.sol\":3009:3016  request */\n      dup1\n        /* \"Campaign.sol\":3009:3026  request.completed */\n      0x02\n      add\n      0x14\n      swap1\n      sload\n      swap1\n      0x0100\n      exp\n      swap1\n      div\n      0xff\n      and\n        /* \"Campaign.sol\":3008:3026  !request.completed */\n      iszero\n        /* \"Campaign.sol\":3000:3027  require(!request.completed) */\n      tag_57\n      jumpi\n      0x00\n      dup1\n      revert\n    tag_57:\n        /* \"Campaign.sol\":3087:3088  2 */\n      0x02\n        /* \"Campaign.sol\":3070:3084  approversCount */\n      dup1\n      sload\n        /* \"Campaign.sol\":3070:3088  approversCount / 2 */\n      tag_58\n      swap2\n      swap1\n      tag_59\n      jump\t// in\n    tag_58:\n        /* \"Campaign.sol\":3045:3052  request */\n      dup2\n        /* \"Campaign.sol\":3045:3066  request.approvalCount */\n      0x04\n      add\n      sload\n        /* \"Campaign.sol\":3045:3089  request.approvalCount > (approversCount / 2) */\n      gt\n        /* \"Campaign.sol\":3037:3091  require(request.approvalCount > (approversCount / 2) ) */\n      tag_60\n      jumpi\n      0x00\n      dup1\n      revert\n    tag_60:\n        /* \"Campaign.sol\":3122:3126  true */\n      0x01\n        /* \"Campaign.sol\":3102:3109  request */\n      dup2\n        /* \"Campaign.sol\":3102:3119  request.completed */\n      0x02\n      add\n      0x14\n        /* \"Campaign.sol\":3102:3126  request.completed = true */\n      0x0100\n      exp\n      dup2\n      sload\n      dup2\n      0xff\n      mul\n      not\n      and\n      swap1\n      dup4\n      iszero\n      iszero\n      mul\n      or\n      swap1\n      sstore\n      pop\n        /* \"Campaign.sol\":3145:3152  request */\n      dup1\n        /* \"Campaign.sol\":3145:3162  request.recipient */\n      0x02\n      add\n      0x00\n      swap1\n      sload\n      swap1\n      0x0100\n      exp\n      swap1\n      div\n      0xffffffffffffffffffffffffffffffffffffffff\n      and\n        /* \"Campaign.sol\":3137:3172  payable(request.recipient).transfer */\n      0xffffffffffffffffffffffffffffffffffffffff\n      and\n        /* \"Campaign.sol\":3137:3188  payable(request.recipient).transfer(request.amount) */\n      0x08fc\n        /* \"Campaign.sol\":3173:3180  request */\n      dup3\n        /* \"Campaign.sol\":3173:3187  request.amount */\n      0x01\n      add\n      sload\n        /* \"Campaign.sol\":3137:3188  payable(request.recipient).transfer(request.amount) */\n      swap1\n      dup2\n      iszero\n      mul\n      swap1\n      mload(0x40)\n      0x00\n      mload(0x40)\n      dup1\n      dup4\n      sub\n      dup2\n      dup6\n      dup9\n      dup9\n      call\n      swap4\n      pop\n      pop\n      pop\n      pop\n      iszero\n      dup1\n      iszero\n      tag_62\n      jumpi\n      returndatasize\n      0x00\n      dup1\n      returndatacopy\n      revert(0x00, returndatasize)\n    tag_62:\n      pop\n        /* \"Campaign.sol\":2889:3195  {... */\n      pop\n        /* \"Campaign.sol\":2823:3195  function finalizeRequest(uint requestIndex) public restricted... */\n      pop\n      jump\t// out\n        /* \"Campaign.sol\":906:948  mapping(address => bool)  public approvers */\n    tag_20:\n      mstore(0x20, 0x01)\n      dup1\n      0x00\n      mstore\n      keccak256(0x00, 0x40)\n      0x00\n      swap2\n      pop\n      sload\n      swap1\n      0x0100\n      exp\n      swap1\n      div\n      0xff\n      and\n      dup2\n      jump\t// out\n        /* \"Campaign.sol\":878:900  address public manager */\n    tag_25:\n      0x00\n      dup1\n      sload\n      swap1\n      0x0100\n      exp\n      swap1\n      div\n      0xffffffffffffffffffffffffffffffffffffffff\n      and\n      dup2\n      jump\t// out\n        /* \"Campaign.sol\":1021:1046  Request[] public requests */\n    tag_31:\n      0x04\n      dup2\n      dup2\n      sload\n      dup2\n      lt\n      tag_63\n      jumpi\n      0x00\n      dup1\n      revert\n    tag_63:\n      swap1\n      0x00\n      mstore\n      keccak256(0x00, 0x20)\n      swap1\n      0x05\n      mul\n      add\n      0x00\n      swap2\n      pop\n      swap1\n      pop\n      dup1\n      0x00\n      add\n      dup1\n      sload\n      tag_65\n      swap1\n      tag_66\n      jump\t// in\n    tag_65:\n      dup1\n      0x1f\n      add\n      0x20\n      dup1\n      swap2\n      div\n      mul\n      0x20\n      add\n      mload(0x40)\n      swap1\n      dup2\n      add\n      0x40\n      mstore\n      dup1\n      swap3\n      swap2\n      swap1\n      dup2\n      dup2\n      mstore\n      0x20\n      add\n      dup3\n      dup1\n      sload\n      tag_67\n      swap1\n      tag_66\n      jump\t// in\n    tag_67:\n      dup1\n      iszero\n      tag_68\n      jumpi\n      dup1\n      0x1f\n      lt\n      tag_69\n      jumpi\n      0x0100\n      dup1\n      dup4\n      sload\n      div\n      mul\n      dup4\n      mstore\n      swap2\n      0x20\n      add\n      swap2\n      jump(tag_68)\n    tag_69:\n      dup3\n      add\n      swap2\n      swap1\n      0x00\n      mstore\n      keccak256(0x00, 0x20)\n      swap1\n    tag_70:\n      dup2\n      sload\n      dup2\n      mstore\n      swap1\n      0x01\n      add\n      swap1\n      0x20\n      add\n      dup1\n      dup4\n      gt\n      tag_70\n      jumpi\n      dup3\n      swap1\n      sub\n      0x1f\n      and\n      dup3\n      add\n      swap2\n    tag_68:\n      pop\n      pop\n      pop\n      pop\n      pop\n      swap1\n      dup1\n      0x01\n      add\n      sload\n      swap1\n      dup1\n      0x02\n      add\n      0x00\n      swap1\n      sload\n      swap1\n      0x0100\n      exp\n      swap1\n      div\n      0xffffffffffffffffffffffffffffffffffffffff\n      and\n      swap1\n      dup1\n      0x02\n      add\n      0x14\n      swap1\n      sload\n      swap1\n      0x0100\n      exp\n      swap1\n      div\n      0xff\n      and\n      swap1\n      dup1\n      0x04\n      add\n      sload\n      swap1\n      pop\n      dup6\n      jump\t// out\n        /* \"Campaign.sol\":954:980  uint public approversCount */\n    tag_36:\n      sload(0x02)\n      dup2\n      jump\t// out\n        /* \"Campaign.sol\":1546:2534  function createRequest(string calldata description, uint amount, address recipient) public restricted... */\n    tag_43:\n        /* \"Campaign.sol\":1111:1118  manager */\n      0x00\n      dup1\n      sload\n      swap1\n      0x0100\n      exp\n      swap1\n      div\n      0xffffffffffffffffffffffffffffffffffffffff\n      and\n        /* \"Campaign.sol\":1097:1118  msg.sender == manager */\n      0xffffffffffffffffffffffffffffffffffffffff\n      and\n        /* \"Campaign.sol\":1097:1107  msg.sender */\n      caller\n        /* \"Campaign.sol\":1097:1118  msg.sender == manager */\n      0xffffffffffffffffffffffffffffffffffffffff\n      and\n      eq\n        /* \"Campaign.sol\":1089:1119  require(msg.sender == manager) */\n      tag_72\n      jumpi\n      0x00\n      dup1\n      revert\n    tag_72:\n        /* \"Campaign.sol\":2206:2221  uint numRequest */\n      0x00\n        /* \"Campaign.sol\":2224:2232  requests */\n      0x04\n        /* \"Campaign.sol\":2224:2239  requests.length */\n      dup1\n      sload\n      swap1\n      pop\n        /* \"Campaign.sol\":2206:2239  uint numRequest = requests.length */\n      swap1\n      pop\n        /* \"Campaign.sol\":2250:2258  requests */\n      0x04\n        /* \"Campaign.sol\":2250:2265  requests.push() */\n      0x01\n      dup2\n      0x01\n      dup2\n      sload\n      add\n      dup1\n      dup3\n      sstore\n      dup1\n      swap2\n      pop\n      pop\n      sub\n      swap1\n      0x00\n      mstore\n      keccak256(0x00, 0x20)\n      swap1\n      pop\n      pop\n        /* \"Campaign.sol\":2276:2302  Request storage newRequest */\n      0x00\n        /* \"Campaign.sol\":2305:2313  requests */\n      0x04\n        /* \"Campaign.sol\":2314:2324  numRequest */\n      dup3\n        /* \"Campaign.sol\":2305:2325  requests[numRequest] */\n      dup2\n      sload\n      dup2\n      lt\n      tag_75\n      jumpi\n      tag_76\n      tag_55\n      jump\t// in\n    tag_76:\n    tag_75:\n      swap1\n      0x00\n      mstore\n      keccak256(0x00, 0x20)\n      swap1\n      0x05\n      mul\n      add\n        /* \"Campaign.sol\":2276:2325  Request storage newRequest = requests[numRequest] */\n      swap1\n      pop\n        /* \"Campaign.sol\":2360:2371  description */\n      dup6\n      dup6\n        /* \"Campaign.sol\":2335:2345  newRequest */\n      dup3\n        /* \"Campaign.sol\":2335:2357  newRequest.description */\n      0x00\n      add\n        /* \"Campaign.sol\":2335:2371  newRequest.description = description */\n      swap2\n      dup3\n      tag_78\n      swap3\n      swap2\n      swap1\n      tag_79\n      jump\t// in\n    tag_78:\n      pop\n        /* \"Campaign.sol\":2401:2407  amount */\n      dup4\n        /* \"Campaign.sol\":2381:2391  newRequest */\n      dup2\n        /* \"Campaign.sol\":2381:2398  newRequest.amount */\n      0x01\n      add\n        /* \"Campaign.sol\":2381:2407  newRequest.amount = amount */\n      dup2\n      swap1\n      sstore\n      pop\n        /* \"Campaign.sol\":2440:2449  recipient */\n      dup3\n        /* \"Campaign.sol\":2417:2427  newRequest */\n      dup2\n        /* \"Campaign.sol\":2417:2437  newRequest.recipient */\n      0x02\n      add\n      0x00\n        /* \"Campaign.sol\":2417:2449  newRequest.recipient = recipient */\n      0x0100\n      exp\n      dup2\n      sload\n      dup2\n      0xffffffffffffffffffffffffffffffffffffffff\n      mul\n      not\n      and\n      swap1\n      dup4\n      0xffffffffffffffffffffffffffffffffffffffff\n      and\n      mul\n      or\n      swap1\n      sstore\n      pop\n        /* \"Campaign.sol\":2482:2487  false */\n      0x00\n        /* \"Campaign.sol\":2459:2469  newRequest */\n      dup2\n        /* \"Campaign.sol\":2459:2479  newRequest.completed */\n      0x02\n      add\n      0x14\n        /* \"Campaign.sol\":2459:2487  newRequest.completed = false */\n      0x0100\n      exp\n      dup2\n      sload\n      dup2\n      0xff\n      mul\n      not\n      and\n      swap1\n      dup4\n      iszero\n      iszero\n      mul\n      or\n      swap1\n      sstore\n      pop\n        /* \"Campaign.sol\":2524:2525  0 */\n      0x00\n        /* \"Campaign.sol\":2497:2507  newRequest */\n      dup2\n        /* \"Campaign.sol\":2497:2521  newRequest.approvalCount */\n      0x04\n      add\n        /* \"Campaign.sol\":2497:2525  newRequest.approvalCount = 0 */\n      dup2\n      swap1\n      sstore\n      pop\n        /* \"Campaign.sol\":1652:2534  {... */\n      pop\n      pop\n        /* \"Campaign.sol\":1546:2534  function createRequest(string calldata description, uint amount, address recipient) public restricted... */\n      pop\n      pop\n      pop\n      pop\n      jump\t// out\n        /* \"Campaign.sol\":1333:1540  function contribute() public payable... */\n    tag_45:\n        /* \"Campaign.sol\":1404:1428  minimumContributionInEth */\n      sload(0x03)\n        /* \"Campaign.sol\":1392:1401  msg.value */\n      callvalue\n        /* \"Campaign.sol\":1392:1428  msg.value > minimumContributionInEth */\n      gt\n        /* \"Campaign.sol\":1384:1429  require(msg.value > minimumContributionInEth) */\n      tag_81\n      jumpi\n      0x00\n      dup1\n      revert\n    tag_81:\n        /* \"Campaign.sol\":1502:1506  true */\n      0x01\n        /* \"Campaign.sol\":1478:1487  approvers */\n      dup1\n        /* \"Campaign.sol\":1478:1499  approvers[msg.sender] */\n      0x00\n        /* \"Campaign.sol\":1488:1498  msg.sender */\n      caller\n        /* \"Campaign.sol\":1478:1499  approvers[msg.sender] */\n      0xffffffffffffffffffffffffffffffffffffffff\n      and\n      0xffffffffffffffffffffffffffffffffffffffff\n      and\n      dup2\n      mstore\n      0x20\n      add\n      swap1\n      dup2\n      mstore\n      0x20\n      add\n      0x00\n      keccak256\n      0x00\n        /* \"Campaign.sol\":1478:1506  approvers[msg.sender] = true */\n      0x0100\n      exp\n      dup2\n      sload\n      dup2\n      0xff\n      mul\n      not\n      and\n      swap1\n      dup4\n      iszero\n      iszero\n      mul\n      or\n      swap1\n      sstore\n      pop\n        /* \"Campaign.sol\":1516:1530  approversCount */\n      0x02\n      0x00\n        /* \"Campaign.sol\":1516:1533  approversCount ++ */\n      dup2\n      sload\n      dup1\n      swap3\n      swap2\n      swap1\n      tag_82\n      swap1\n      tag_83\n      jump\t// in\n    tag_82:\n      swap2\n      swap1\n      pop\n      sstore\n      pop\n        /* \"Campaign.sol\":1333:1540  function contribute() public payable... */\n      jump\t// out\n        /* \"Campaign.sol\":2540:2817  function approveRequest(uint requestIndex) public ... */\n    tag_49:\n        /* \"Campaign.sol\":2613:2622  approvers */\n      0x01\n        /* \"Campaign.sol\":2613:2634  approvers[msg.sender] */\n      0x00\n        /* \"Campaign.sol\":2623:2633  msg.sender */\n      caller\n        /* \"Campaign.sol\":2613:2634  approvers[msg.sender] */\n      0xffffffffffffffffffffffffffffffffffffffff\n      and\n      0xffffffffffffffffffffffffffffffffffffffff\n      and\n      dup2\n      mstore\n      0x20\n      add\n      swap1\n      dup2\n      mstore\n      0x20\n      add\n      0x00\n      keccak256\n      0x00\n      swap1\n      sload\n      swap1\n      0x0100\n      exp\n      swap1\n      div\n      0xff\n      and\n        /* \"Campaign.sol\":2605:2635  require(approvers[msg.sender]) */\n      tag_85\n      jumpi\n      0x00\n      dup1\n      revert\n    tag_85:\n        /* \"Campaign.sol\":2654:2662  requests */\n      0x04\n        /* \"Campaign.sol\":2663:2675  requestIndex */\n      dup2\n        /* \"Campaign.sol\":2654:2676  requests[requestIndex] */\n      dup2\n      sload\n      dup2\n      lt\n      tag_86\n      jumpi\n      tag_87\n      tag_55\n      jump\t// in\n    tag_87:\n    tag_86:\n      swap1\n      0x00\n      mstore\n      keccak256(0x00, 0x20)\n      swap1\n      0x05\n      mul\n      add\n        /* \"Campaign.sol\":2654:2686  requests[requestIndex].approvals */\n      0x03\n      add\n        /* \"Campaign.sol\":2654:2698  requests[requestIndex].approvals[msg.sender] */\n      0x00\n        /* \"Campaign.sol\":2687:2697  msg.sender */\n      caller\n        /* \"Campaign.sol\":2654:2698  requests[requestIndex].approvals[msg.sender] */\n      0xffffffffffffffffffffffffffffffffffffffff\n      and\n      0xffffffffffffffffffffffffffffffffffffffff\n      and\n      dup2\n      mstore\n      0x20\n      add\n      swap1\n      dup2\n      mstore\n      0x20\n      add\n      0x00\n      keccak256\n      0x00\n      swap1\n      sload\n      swap1\n      0x0100\n      exp\n      swap1\n      div\n      0xff\n      and\n        /* \"Campaign.sol\":2653:2698  !requests[requestIndex].approvals[msg.sender] */\n      iszero\n        /* \"Campaign.sol\":2645:2699  require(!requests[requestIndex].approvals[msg.sender]) */\n      tag_89\n      jumpi\n      0x00\n      dup1\n      revert\n    tag_89:\n        /* \"Campaign.sol\":2757:2761  true */\n      0x01\n        /* \"Campaign.sol\":2710:2718  requests */\n      0x04\n        /* \"Campaign.sol\":2719:2731  requestIndex */\n      dup3\n        /* \"Campaign.sol\":2710:2732  requests[requestIndex] */\n      dup2\n      sload\n      dup2\n      lt\n      tag_90\n      jumpi\n      tag_91\n      tag_55\n      jump\t// in\n    tag_91:\n    tag_90:\n      swap1\n      0x00\n      mstore\n      keccak256(0x00, 0x20)\n      swap1\n      0x05\n      mul\n      add\n        /* \"Campaign.sol\":2710:2742  requests[requestIndex].approvals */\n      0x03\n      add\n        /* \"Campaign.sol\":2710:2754  requests[requestIndex].approvals[msg.sender] */\n      0x00\n        /* \"Campaign.sol\":2743:2753  msg.sender */\n      caller\n        /* \"Campaign.sol\":2710:2754  requests[requestIndex].approvals[msg.sender] */\n      0xffffffffffffffffffffffffffffffffffffffff\n      and\n      0xffffffffffffffffffffffffffffffffffffffff\n      and\n      dup2\n      mstore\n      0x20\n      add\n      swap1\n      dup2\n      mstore\n      0x20\n      add\n      0x00\n      keccak256\n      0x00\n        /* \"Campaign.sol\":2710:2761  requests[requestIndex].approvals[msg.sender] = true */\n      0x0100\n      exp\n      dup2\n      sload\n      dup2\n      0xff\n      mul\n      not\n      and\n      swap1\n      dup4\n      iszero\n      iszero\n      mul\n      or\n      swap1\n      sstore\n      pop\n        /* \"Campaign.sol\":2771:2779  requests */\n      0x04\n        /* \"Campaign.sol\":2780:2792  requestIndex */\n      dup2\n        /* \"Campaign.sol\":2771:2793  requests[requestIndex] */\n      dup2\n      sload\n      dup2\n      lt\n      tag_93\n      jumpi\n      tag_94\n      tag_55\n      jump\t// in\n    tag_94:\n    tag_93:\n      swap1\n      0x00\n      mstore\n      keccak256(0x00, 0x20)\n      swap1\n      0x05\n      mul\n      add\n        /* \"Campaign.sol\":2771:2807  requests[requestIndex].approvalCount */\n      0x04\n      add\n      0x00\n        /* \"Campaign.sol\":2771:2810  requests[requestIndex].approvalCount ++ */\n      dup2\n      sload\n      dup1\n      swap3\n      swap2\n      swap1\n      tag_96\n      swap1\n      tag_83\n      jump\t// in\n    tag_96:\n      swap2\n      swap1\n      pop\n      sstore\n      pop\n        /* \"Campaign.sol\":2540:2817  function approveRequest(uint requestIndex) public ... */\n      pop\n      jump\t// out\n        /* \"#utility.yul\":88:205   */\n    tag_98:\n        /* \"#utility.yul\":197:198   */\n      0x00\n        /* \"#utility.yul\":194:195   */\n      dup1\n        /* \"#utility.yul\":187:199   */\n      revert\n        /* \"#utility.yul\":211:328   */\n    tag_99:\n        /* \"#utility.yul\":320:321   */\n      0x00\n        /* \"#utility.yul\":317:318   */\n      dup1\n        /* \"#utility.yul\":310:322   */\n      revert\n        /* \"#utility.yul\":334:411   */\n    tag_100:\n        /* \"#utility.yul\":371:378   */\n      0x00\n        /* \"#utility.yul\":400:405   */\n      dup2\n        /* \"#utility.yul\":389:405   */\n      swap1\n      pop\n        /* \"#utility.yul\":334:411   */\n      swap2\n      swap1\n      pop\n      jump\t// out\n        /* \"#utility.yul\":417:539   */\n    tag_101:\n        /* \"#utility.yul\":490:514   */\n      tag_146\n        /* \"#utility.yul\":508:513   */\n      dup2\n        /* \"#utility.yul\":490:514   */\n      tag_100\n      jump\t// in\n    tag_146:\n        /* \"#utility.yul\":483:488   */\n      dup2\n        /* \"#utility.yul\":480:515   */\n      eq\n        /* \"#utility.yul\":470:533   */\n      tag_147\n      jumpi\n        /* \"#utility.yul\":529:530   */\n      0x00\n        /* \"#utility.yul\":526:527   */\n      dup1\n        /* \"#utility.yul\":519:531   */\n      revert\n        /* \"#utility.yul\":470:533   */\n    tag_147:\n        /* \"#utility.yul\":417:539   */\n      pop\n      jump\t// out\n        /* \"#utility.yul\":545:684   */\n    tag_102:\n        /* \"#utility.yul\":591:596   */\n      0x00\n        /* \"#utility.yul\":629:635   */\n      dup2\n        /* \"#utility.yul\":616:636   */\n      calldataload\n        /* \"#utility.yul\":607:636   */\n      swap1\n      pop\n        /* \"#utility.yul\":645:678   */\n      tag_149\n        /* \"#utility.yul\":672:677   */\n      dup2\n        /* \"#utility.yul\":645:678   */\n      tag_101\n      jump\t// in\n    tag_149:\n        /* \"#utility.yul\":545:684   */\n      swap3\n      swap2\n      pop\n      pop\n      jump\t// out\n        /* \"#utility.yul\":690:1019   */\n    tag_14:\n        /* \"#utility.yul\":749:755   */\n      0x00\n        /* \"#utility.yul\":798:800   */\n      0x20\n        /* \"#utility.yul\":786:795   */\n      dup3\n        /* \"#utility.yul\":777:784   */\n      dup5\n        /* \"#utility.yul\":773:796   */\n      sub\n        /* \"#utility.yul\":769:801   */\n      slt\n        /* \"#utility.yul\":766:885   */\n      iszero\n      tag_151\n      jumpi\n        /* \"#utility.yul\":804:883   */\n      tag_152\n      tag_98\n      jump\t// in\n    tag_152:\n        /* \"#utility.yul\":766:885   */\n    tag_151:\n        /* \"#utility.yul\":924:925   */\n      0x00\n        /* \"#utility.yul\":949:1002   */\n      tag_153\n        /* \"#utility.yul\":994:1001   */\n      dup5\n        /* \"#utility.yul\":985:991   */\n      dup3\n        /* \"#utility.yul\":974:983   */\n      dup6\n        /* \"#utility.yul\":970:992   */\n      add\n        /* \"#utility.yul\":949:1002   */\n      tag_102\n      jump\t// in\n    tag_153:\n        /* \"#utility.yul\":939:1002   */\n      swap2\n      pop\n        /* \"#utility.yul\":895:1012   */\n      pop\n        /* \"#utility.yul\":690:1019   */\n      swap3\n      swap2\n      pop\n      pop\n      jump\t// out\n        /* \"#utility.yul\":1025:1151   */\n    tag_103:\n        /* \"#utility.yul\":1062:1069   */\n      0x00\n        /* \"#utility.yul\":1102:1144   */\n      0xffffffffffffffffffffffffffffffffffffffff\n        /* \"#utility.yul\":1095:1100   */\n      dup3\n        /* \"#utility.yul\":1091:1145   */\n      and\n        /* \"#utility.yul\":1080:1145   */\n      swap1\n      pop\n        /* \"#utility.yul\":1025:1151   */\n      swap2\n      swap1\n      pop\n      jump\t// out\n        /* \"#utility.yul\":1157:1253   */\n    tag_104:\n        /* \"#utility.yul\":1194:1201   */\n      0x00\n        /* \"#utility.yul\":1223:1247   */\n      tag_156\n        /* \"#utility.yul\":1241:1246   */\n      dup3\n        /* \"#utility.yul\":1223:1247   */\n      tag_103\n      jump\t// in\n    tag_156:\n        /* \"#utility.yul\":1212:1247   */\n      swap1\n      pop\n        /* \"#utility.yul\":1157:1253   */\n      swap2\n      swap1\n      pop\n      jump\t// out\n        /* \"#utility.yul\":1259:1381   */\n    tag_105:\n        /* \"#utility.yul\":1332:1356   */\n      tag_158\n        /* \"#utility.yul\":1350:1355   */\n      dup2\n        /* \"#utility.yul\":1332:1356   */\n      tag_104\n      jump\t// in\n    tag_158:\n        /* \"#utility.yul\":1325:1330   */\n      dup2\n        /* \"#utility.yul\":1322:1357   */\n      eq\n        /* \"#utility.yul\":1312:1375   */\n      tag_159\n      jumpi\n        /* \"#utility.yul\":1371:1372   */\n      0x00\n        /* \"#utility.yul\":1368:1369   */\n      dup1\n        /* \"#utility.yul\":1361:1373   */\n      revert\n        /* \"#utility.yul\":1312:1375   */\n    tag_159:\n        /* \"#utility.yul\":1259:1381   */\n      pop\n      jump\t// out\n        /* \"#utility.yul\":1387:1526   */\n    tag_106:\n        /* \"#utility.yul\":1433:1438   */\n      0x00\n        /* \"#utility.yul\":1471:1477   */\n      dup2\n        /* \"#utility.yul\":1458:1478   */\n      calldataload\n        /* \"#utility.yul\":1449:1478   */\n      swap1\n      pop\n        /* \"#utility.yul\":1487:1520   */\n      tag_161\n        /* \"#utility.yul\":1514:1519   */\n      dup2\n        /* \"#utility.yul\":1487:1520   */\n      tag_105\n      jump\t// in\n    tag_161:\n        /* \"#utility.yul\":1387:1526   */\n      swap3\n      swap2\n      pop\n      pop\n      jump\t// out\n        /* \"#utility.yul\":1532:1861   */\n    tag_19:\n        /* \"#utility.yul\":1591:1597   */\n      0x00\n        /* \"#utility.yul\":1640:1642   */\n      0x20\n        /* \"#utility.yul\":1628:1637   */\n      dup3\n        /* \"#utility.yul\":1619:1626   */\n      dup5\n        /* \"#utility.yul\":1615:1638   */\n      sub\n        /* \"#utility.yul\":1611:1643   */\n      slt\n        /* \"#utility.yul\":1608:1727   */\n      iszero\n      tag_163\n      jumpi\n        /* \"#utility.yul\":1646:1725   */\n      tag_164\n      tag_98\n      jump\t// in\n    tag_164:\n        /* \"#utility.yul\":1608:1727   */\n    tag_163:\n        /* \"#utility.yul\":1766:1767   */\n      0x00\n        /* \"#utility.yul\":1791:1844   */\n      tag_165\n        /* \"#utility.yul\":1836:1843   */\n      dup5\n        /* \"#utility.yul\":1827:1833   */\n      dup3\n        /* \"#utility.yul\":1816:1825   */\n      dup6\n        /* \"#utility.yul\":1812:1834   */\n      add\n        /* \"#utility.yul\":1791:1844   */\n      tag_106\n      jump\t// in\n    tag_165:\n        /* \"#utility.yul\":1781:1844   */\n      swap2\n      pop\n        /* \"#utility.yul\":1737:1854   */\n      pop\n        /* \"#utility.yul\":1532:1861   */\n      swap3\n      swap2\n      pop\n      pop\n      jump\t// out\n        /* \"#utility.yul\":1867:1957   */\n    tag_107:\n        /* \"#utility.yul\":1901:1908   */\n      0x00\n        /* \"#utility.yul\":1944:1949   */\n      dup2\n        /* \"#utility.yul\":1937:1950   */\n      iszero\n        /* \"#utility.yul\":1930:1951   */\n      iszero\n        /* \"#utility.yul\":1919:1951   */\n      swap1\n      pop\n        /* \"#utility.yul\":1867:1957   */\n      swap2\n      swap1\n      pop\n      jump\t// out\n        /* \"#utility.yul\":1963:2072   */\n    tag_108:\n        /* \"#utility.yul\":2044:2065   */\n      tag_168\n        /* \"#utility.yul\":2059:2064   */\n      dup2\n        /* \"#utility.yul\":2044:2065   */\n      tag_107\n      jump\t// in\n    tag_168:\n        /* \"#utility.yul\":2039:2042   */\n      dup3\n        /* \"#utility.yul\":2032:2066   */\n      mstore\n        /* \"#utility.yul\":1963:2072   */\n      pop\n      pop\n      jump\t// out\n        /* \"#utility.yul\":2078:2288   */\n    tag_22:\n        /* \"#utility.yul\":2165:2169   */\n      0x00\n        /* \"#utility.yul\":2203:2205   */\n      0x20\n        /* \"#utility.yul\":2192:2201   */\n      dup3\n        /* \"#utility.yul\":2188:2206   */\n      add\n        /* \"#utility.yul\":2180:2206   */\n      swap1\n      pop\n        /* \"#utility.yul\":2216:2281   */\n      tag_170\n        /* \"#utility.yul\":2278:2279   */\n      0x00\n        /* \"#utility.yul\":2267:2276   */\n      dup4\n        /* \"#utility.yul\":2263:2280   */\n      add\n        /* \"#utility.yul\":2254:2260   */\n      dup5\n        /* \"#utility.yul\":2216:2281   */\n      tag_108\n      jump\t// in\n    tag_170:\n        /* \"#utility.yul\":2078:2288   */\n      swap3\n      swap2\n      pop\n      pop\n      jump\t// out\n        /* \"#utility.yul\":2294:2412   */\n    tag_109:\n        /* \"#utility.yul\":2381:2405   */\n      tag_172\n        /* \"#utility.yul\":2399:2404   */\n      dup2\n        /* \"#utility.yul\":2381:2405   */\n      tag_104\n      jump\t// in\n    tag_172:\n        /* \"#utility.yul\":2376:2379   */\n      dup3\n        /* \"#utility.yul\":2369:2406   */\n      mstore\n        /* \"#utility.yul\":2294:2412   */\n      pop\n      pop\n      jump\t// out\n        /* \"#utility.yul\":2418:2640   */\n    tag_27:\n        /* \"#utility.yul\":2511:2515   */\n      0x00\n        /* \"#utility.yul\":2549:2551   */\n      0x20\n        /* \"#utility.yul\":2538:2547   */\n      dup3\n        /* \"#utility.yul\":2534:2552   */\n      add\n        /* \"#utility.yul\":2526:2552   */\n      swap1\n      pop\n        /* \"#utility.yul\":2562:2633   */\n      tag_174\n        /* \"#utility.yul\":2630:2631   */\n      0x00\n        /* \"#utility.yul\":2619:2628   */\n      dup4\n        /* \"#utility.yul\":2615:2632   */\n      add\n        /* \"#utility.yul\":2606:2612   */\n      dup5\n        /* \"#utility.yul\":2562:2633   */\n      tag_109\n      jump\t// in\n    tag_174:\n        /* \"#utility.yul\":2418:2640   */\n      swap3\n      swap2\n      pop\n      pop\n      jump\t// out\n        /* \"#utility.yul\":2646:2745   */\n    tag_110:\n        /* \"#utility.yul\":2698:2704   */\n      0x00\n        /* \"#utility.yul\":2732:2737   */\n      dup2\n        /* \"#utility.yul\":2726:2738   */\n      mload\n        /* \"#utility.yul\":2716:2738   */\n      swap1\n      pop\n        /* \"#utility.yul\":2646:2745   */\n      swap2\n      swap1\n      pop\n      jump\t// out\n        /* \"#utility.yul\":2751:2920   */\n    tag_111:\n        /* \"#utility.yul\":2835:2846   */\n      0x00\n        /* \"#utility.yul\":2869:2875   */\n      dup3\n        /* \"#utility.yul\":2864:2867   */\n      dup3\n        /* \"#utility.yul\":2857:2876   */\n      mstore\n        /* \"#utility.yul\":2909:2913   */\n      0x20\n        /* \"#utility.yul\":2904:2907   */\n      dup3\n        /* \"#utility.yul\":2900:2914   */\n      add\n        /* \"#utility.yul\":2885:2914   */\n      swap1\n      pop\n        /* \"#utility.yul\":2751:2920   */\n      swap3\n      swap2\n      pop\n      pop\n      jump\t// out\n        /* \"#utility.yul\":2926:3172   */\n    tag_112:\n        /* \"#utility.yul\":3007:3008   */\n      0x00\n        /* \"#utility.yul\":3017:3130   */\n    tag_178:\n        /* \"#utility.yul\":3031:3037   */\n      dup4\n        /* \"#utility.yul\":3028:3029   */\n      dup2\n        /* \"#utility.yul\":3025:3038   */\n      lt\n        /* \"#utility.yul\":3017:3130   */\n      iszero\n      tag_180\n      jumpi\n        /* \"#utility.yul\":3116:3117   */\n      dup1\n        /* \"#utility.yul\":3111:3114   */\n      dup3\n        /* \"#utility.yul\":3107:3118   */\n      add\n        /* \"#utility.yul\":3101:3119   */\n      mload\n        /* \"#utility.yul\":3097:3098   */\n      dup2\n        /* \"#utility.yul\":3092:3095   */\n      dup5\n        /* \"#utility.yul\":3088:3099   */\n      add\n        /* \"#utility.yul\":3081:3120   */\n      mstore\n        /* \"#utility.yul\":3053:3055   */\n      0x20\n        /* \"#utility.yul\":3050:3051   */\n      dup2\n        /* \"#utility.yul\":3046:3056   */\n      add\n        /* \"#utility.yul\":3041:3056   */\n      swap1\n      pop\n        /* \"#utility.yul\":3017:3130   */\n      jump(tag_178)\n    tag_180:\n        /* \"#utility.yul\":3164:3165   */\n      0x00\n        /* \"#utility.yul\":3155:3161   */\n      dup5\n        /* \"#utility.yul\":3150:3153   */\n      dup5\n        /* \"#utility.yul\":3146:3162   */\n      add\n        /* \"#utility.yul\":3139:3166   */\n      mstore\n        /* \"#utility.yul\":2988:3172   */\n      pop\n        /* \"#utility.yul\":2926:3172   */\n      pop\n      pop\n      pop\n      jump\t// out\n        /* \"#utility.yul\":3178:3280   */\n    tag_113:\n        /* \"#utility.yul\":3219:3225   */\n      0x00\n        /* \"#utility.yul\":3270:3272   */\n      0x1f\n        /* \"#utility.yul\":3266:3273   */\n      not\n        /* \"#utility.yul\":3261:3263   */\n      0x1f\n        /* \"#utility.yul\":3254:3259   */\n      dup4\n        /* \"#utility.yul\":3250:3264   */\n      add\n        /* \"#utility.yul\":3246:3274   */\n      and\n        /* \"#utility.yul\":3236:3274   */\n      swap1\n      pop\n        /* \"#utility.yul\":3178:3280   */\n      swap2\n      swap1\n      pop\n      jump\t// out\n        /* \"#utility.yul\":3286:3663   */\n    tag_114:\n        /* \"#utility.yul\":3374:3377   */\n      0x00\n        /* \"#utility.yul\":3402:3441   */\n      tag_183\n        /* \"#utility.yul\":3435:3440   */\n      dup3\n        /* \"#utility.yul\":3402:3441   */\n      tag_110\n      jump\t// in\n    tag_183:\n        /* \"#utility.yul\":3457:3528   */\n      tag_184\n        /* \"#utility.yul\":3521:3527   */\n      dup2\n        /* \"#utility.yul\":3516:3519   */\n      dup6\n        /* \"#utility.yul\":3457:3528   */\n      tag_111\n      jump\t// in\n    tag_184:\n        /* \"#utility.yul\":3450:3528   */\n      swap4\n      pop\n        /* \"#utility.yul\":3537:3602   */\n      tag_185\n        /* \"#utility.yul\":3595:3601   */\n      dup2\n        /* \"#utility.yul\":3590:3593   */\n      dup6\n        /* \"#utility.yul\":3583:3587   */\n      0x20\n        /* \"#utility.yul\":3576:3581   */\n      dup7\n        /* \"#utility.yul\":3572:3588   */\n      add\n        /* \"#utility.yul\":3537:3602   */\n      tag_112\n      jump\t// in\n    tag_185:\n        /* \"#utility.yul\":3627:3656   */\n      tag_186\n        /* \"#utility.yul\":3649:3655   */\n      dup2\n        /* \"#utility.yul\":3627:3656   */\n      tag_113\n      jump\t// in\n    tag_186:\n        /* \"#utility.yul\":3622:3625   */\n      dup5\n        /* \"#utility.yul\":3618:3657   */\n      add\n        /* \"#utility.yul\":3611:3657   */\n      swap2\n      pop\n        /* \"#utility.yul\":3378:3663   */\n      pop\n        /* \"#utility.yul\":3286:3663   */\n      swap3\n      swap2\n      pop\n      pop\n      jump\t// out\n        /* \"#utility.yul\":3669:3787   */\n    tag_115:\n        /* \"#utility.yul\":3756:3780   */\n      tag_188\n        /* \"#utility.yul\":3774:3779   */\n      dup2\n        /* \"#utility.yul\":3756:3780   */\n      tag_100\n      jump\t// in\n    tag_188:\n        /* \"#utility.yul\":3751:3754   */\n      dup3\n        /* \"#utility.yul\":3744:3781   */\n      mstore\n        /* \"#utility.yul\":3669:3787   */\n      pop\n      pop\n      jump\t// out\n        /* \"#utility.yul\":3793:4536   */\n    tag_33:\n        /* \"#utility.yul\":4012:4016   */\n      0x00\n        /* \"#utility.yul\":4050:4053   */\n      0xa0\n        /* \"#utility.yul\":4039:4048   */\n      dup3\n        /* \"#utility.yul\":4035:4054   */\n      add\n        /* \"#utility.yul\":4027:4054   */\n      swap1\n      pop\n        /* \"#utility.yul\":4100:4109   */\n      dup2\n        /* \"#utility.yul\":4094:4098   */\n      dup2\n        /* \"#utility.yul\":4090:4110   */\n      sub\n        /* \"#utility.yul\":4086:4087   */\n      0x00\n        /* \"#utility.yul\":4075:4084   */\n      dup4\n        /* \"#utility.yul\":4071:4088   */\n      add\n        /* \"#utility.yul\":4064:4111   */\n      mstore\n        /* \"#utility.yul\":4128:4206   */\n      tag_190\n        /* \"#utility.yul\":4201:4205   */\n      dup2\n        /* \"#utility.yul\":4192:4198   */\n      dup9\n        /* \"#utility.yul\":4128:4206   */\n      tag_114\n      jump\t// in\n    tag_190:\n        /* \"#utility.yul\":4120:4206   */\n      swap1\n      pop\n        /* \"#utility.yul\":4216:4288   */\n      tag_191\n        /* \"#utility.yul\":4284:4286   */\n      0x20\n        /* \"#utility.yul\":4273:4282   */\n      dup4\n        /* \"#utility.yul\":4269:4287   */\n      add\n        /* \"#utility.yul\":4260:4266   */\n      dup8\n        /* \"#utility.yul\":4216:4288   */\n      tag_115\n      jump\t// in\n    tag_191:\n        /* \"#utility.yul\":4298:4370   */\n      tag_192\n        /* \"#utility.yul\":4366:4368   */\n      0x40\n        /* \"#utility.yul\":4355:4364   */\n      dup4\n        /* \"#utility.yul\":4351:4369   */\n      add\n        /* \"#utility.yul\":4342:4348   */\n      dup7\n        /* \"#utility.yul\":4298:4370   */\n      tag_109\n      jump\t// in\n    tag_192:\n        /* \"#utility.yul\":4380:4446   */\n      tag_193\n        /* \"#utility.yul\":4442:4444   */\n      0x60\n        /* \"#utility.yul\":4431:4440   */\n      dup4\n        /* \"#utility.yul\":4427:4445   */\n      add\n        /* \"#utility.yul\":4418:4424   */\n      dup6\n        /* \"#utility.yul\":4380:4446   */\n      tag_108\n      jump\t// in\n    tag_193:\n        /* \"#utility.yul\":4456:4529   */\n      tag_194\n        /* \"#utility.yul\":4524:4527   */\n      0x80\n        /* \"#utility.yul\":4513:4522   */\n      dup4\n        /* \"#utility.yul\":4509:4528   */\n      add\n        /* \"#utility.yul\":4500:4506   */\n      dup5\n        /* \"#utility.yul\":4456:4529   */\n      tag_115\n      jump\t// in\n    tag_194:\n        /* \"#utility.yul\":3793:4536   */\n      swap7\n      swap6\n      pop\n      pop\n      pop\n      pop\n      pop\n      pop\n      jump\t// out\n        /* \"#utility.yul\":4542:4764   */\n    tag_38:\n        /* \"#utility.yul\":4635:4639   */\n      0x00\n        /* \"#utility.yul\":4673:4675   */\n      0x20\n        /* \"#utility.yul\":4662:4671   */\n      dup3\n        /* \"#utility.yul\":4658:4676   */\n      add\n        /* \"#utility.yul\":4650:4676   */\n      swap1\n      pop\n        /* \"#utility.yul\":4686:4757   */\n      tag_196\n        /* \"#utility.yul\":4754:4755   */\n      0x00\n        /* \"#utility.yul\":4743:4752   */\n      dup4\n        /* \"#utility.yul\":4739:4756   */\n      add\n        /* \"#utility.yul\":4730:4736   */\n      dup5\n        /* \"#utility.yul\":4686:4757   */\n      tag_115\n      jump\t// in\n    tag_196:\n        /* \"#utility.yul\":4542:4764   */\n      swap3\n      swap2\n      pop\n      pop\n      jump\t// out\n        /* \"#utility.yul\":4770:4887   */\n    tag_116:\n        /* \"#utility.yul\":4879:4880   */\n      0x00\n        /* \"#utility.yul\":4876:4877   */\n      dup1\n        /* \"#utility.yul\":4869:4881   */\n      revert\n        /* \"#utility.yul\":4893:5010   */\n    tag_117:\n        /* \"#utility.yul\":5002:5003   */\n      0x00\n        /* \"#utility.yul\":4999:5000   */\n      dup1\n        /* \"#utility.yul\":4992:5004   */\n      revert\n        /* \"#utility.yul\":5016:5133   */\n    tag_118:\n        /* \"#utility.yul\":5125:5126   */\n      0x00\n        /* \"#utility.yul\":5122:5123   */\n      dup1\n        /* \"#utility.yul\":5115:5127   */\n      revert\n        /* \"#utility.yul\":5153:5706   */\n    tag_119:\n        /* \"#utility.yul\":5211:5219   */\n      0x00\n        /* \"#utility.yul\":5221:5227   */\n      dup1\n        /* \"#utility.yul\":5271:5274   */\n      dup4\n        /* \"#utility.yul\":5264:5268   */\n      0x1f\n        /* \"#utility.yul\":5256:5262   */\n      dup5\n        /* \"#utility.yul\":5252:5269   */\n      add\n        /* \"#utility.yul\":5248:5275   */\n      slt\n        /* \"#utility.yul\":5238:5360   */\n      tag_201\n      jumpi\n        /* \"#utility.yul\":5279:5358   */\n      tag_202\n      tag_116\n      jump\t// in\n    tag_202:\n        /* \"#utility.yul\":5238:5360   */\n    tag_201:\n        /* \"#utility.yul\":5392:5398   */\n      dup3\n        /* \"#utility.yul\":5379:5399   */\n      calldataload\n        /* \"#utility.yul\":5369:5399   */\n      swap1\n      pop\n        /* \"#utility.yul\":5422:5440   */\n      0xffffffffffffffff\n        /* \"#utility.yul\":5414:5420   */\n      dup2\n        /* \"#utility.yul\":5411:5441   */\n      gt\n        /* \"#utility.yul\":5408:5525   */\n      iszero\n      tag_203\n      jumpi\n        /* \"#utility.yul\":5444:5523   */\n      tag_204\n      tag_117\n      jump\t// in\n    tag_204:\n        /* \"#utility.yul\":5408:5525   */\n    tag_203:\n        /* \"#utility.yul\":5558:5562   */\n      0x20\n        /* \"#utility.yul\":5550:5556   */\n      dup4\n        /* \"#utility.yul\":5546:5563   */\n      add\n        /* \"#utility.yul\":5534:5563   */\n      swap2\n      pop\n        /* \"#utility.yul\":5612:5615   */\n      dup4\n        /* \"#utility.yul\":5604:5608   */\n      0x01\n        /* \"#utility.yul\":5596:5602   */\n      dup3\n        /* \"#utility.yul\":5592:5609   */\n      mul\n        /* \"#utility.yul\":5582:5590   */\n      dup4\n        /* \"#utility.yul\":5578:5610   */\n      add\n        /* \"#utility.yul\":5575:5616   */\n      gt\n        /* \"#utility.yul\":5572:5700   */\n      iszero\n      tag_205\n      jumpi\n        /* \"#utility.yul\":5619:5698   */\n      tag_206\n      tag_118\n      jump\t// in\n    tag_206:\n        /* \"#utility.yul\":5572:5700   */\n    tag_205:\n        /* \"#utility.yul\":5153:5706   */\n      swap3\n      pop\n      swap3\n      swap1\n      pop\n      jump\t// out\n        /* \"#utility.yul\":5712:6531   */\n    tag_42:\n        /* \"#utility.yul\":5801:5807   */\n      0x00\n        /* \"#utility.yul\":5809:5815   */\n      dup1\n        /* \"#utility.yul\":5817:5823   */\n      0x00\n        /* \"#utility.yul\":5825:5831   */\n      dup1\n        /* \"#utility.yul\":5874:5876   */\n      0x60\n        /* \"#utility.yul\":5862:5871   */\n      dup6\n        /* \"#utility.yul\":5853:5860   */\n      dup8\n        /* \"#utility.yul\":5849:5872   */\n      sub\n        /* \"#utility.yul\":5845:5877   */\n      slt\n        /* \"#utility.yul\":5842:5961   */\n      iszero\n      tag_208\n      jumpi\n        /* \"#utility.yul\":5880:5959   */\n      tag_209\n      tag_98\n      jump\t// in\n    tag_209:\n        /* \"#utility.yul\":5842:5961   */\n    tag_208:\n        /* \"#utility.yul\":6028:6029   */\n      0x00\n        /* \"#utility.yul\":6017:6026   */\n      dup6\n        /* \"#utility.yul\":6013:6030   */\n      add\n        /* \"#utility.yul\":6000:6031   */\n      calldataload\n        /* \"#utility.yul\":6058:6076   */\n      0xffffffffffffffff\n        /* \"#utility.yul\":6050:6056   */\n      dup2\n        /* \"#utility.yul\":6047:6077   */\n      gt\n        /* \"#utility.yul\":6044:6161   */\n      iszero\n      tag_210\n      jumpi\n        /* \"#utility.yul\":6080:6159   */\n      tag_211\n      tag_99\n      jump\t// in\n    tag_211:\n        /* \"#utility.yul\":6044:6161   */\n    tag_210:\n        /* \"#utility.yul\":6193:6258   */\n      tag_212\n        /* \"#utility.yul\":6250:6257   */\n      dup8\n        /* \"#utility.yul\":6241:6247   */\n      dup3\n        /* \"#utility.yul\":6230:6239   */\n      dup9\n        /* \"#utility.yul\":6226:6248   */\n      add\n        /* \"#utility.yul\":6193:6258   */\n      tag_119\n      jump\t// in\n    tag_212:\n        /* \"#utility.yul\":6175:6258   */\n      swap5\n      pop\n      swap5\n      pop\n        /* \"#utility.yul\":5971:6268   */\n      pop\n        /* \"#utility.yul\":6307:6309   */\n      0x20\n        /* \"#utility.yul\":6333:6386   */\n      tag_213\n        /* \"#utility.yul\":6378:6385   */\n      dup8\n        /* \"#utility.yul\":6369:6375   */\n      dup3\n        /* \"#utility.yul\":6358:6367   */\n      dup9\n        /* \"#utility.yul\":6354:6376   */\n      add\n        /* \"#utility.yul\":6333:6386   */\n      tag_102\n      jump\t// in\n    tag_213:\n        /* \"#utility.yul\":6323:6386   */\n      swap3\n      pop\n        /* \"#utility.yul\":6278:6396   */\n      pop\n        /* \"#utility.yul\":6435:6437   */\n      0x40\n        /* \"#utility.yul\":6461:6514   */\n      tag_214\n        /* \"#utility.yul\":6506:6513   */\n      dup8\n        /* \"#utility.yul\":6497:6503   */\n      dup3\n        /* \"#utility.yul\":6486:6495   */\n      dup9\n        /* \"#utility.yul\":6482:6504   */\n      add\n        /* \"#utility.yul\":6461:6514   */\n      tag_106\n      jump\t// in\n    tag_214:\n        /* \"#utility.yul\":6451:6514   */\n      swap2\n      pop\n        /* \"#utility.yul\":6406:6524   */\n      pop\n        /* \"#utility.yul\":5712:6531   */\n      swap3\n      swap6\n      swap2\n      swap5\n      pop\n      swap3\n      pop\n      jump\t// out\n        /* \"#utility.yul\":6537:6717   */\n    tag_55:\n        /* \"#utility.yul\":6585:6662   */\n      0x4e487b7100000000000000000000000000000000000000000000000000000000\n        /* \"#utility.yul\":6582:6583   */\n      0x00\n        /* \"#utility.yul\":6575:6663   */\n      mstore\n        /* \"#utility.yul\":6682:6686   */\n      0x32\n        /* \"#utility.yul\":6679:6680   */\n      0x04\n        /* \"#utility.yul\":6672:6687   */\n      mstore\n        /* \"#utility.yul\":6706:6710   */\n      0x24\n        /* \"#utility.yul\":6703:6704   */\n      0x00\n        /* \"#utility.yul\":6696:6711   */\n      revert\n        /* \"#utility.yul\":6723:6903   */\n    tag_120:\n        /* \"#utility.yul\":6771:6848   */\n      0x4e487b7100000000000000000000000000000000000000000000000000000000\n        /* \"#utility.yul\":6768:6769   */\n      0x00\n        /* \"#utility.yul\":6761:6849   */\n      mstore\n        /* \"#utility.yul\":6868:6872   */\n      0x12\n        /* \"#utility.yul\":6865:6866   */\n      0x04\n        /* \"#utility.yul\":6858:6873   */\n      mstore\n        /* \"#utility.yul\":6892:6896   */\n      0x24\n        /* \"#utility.yul\":6889:6890   */\n      0x00\n        /* \"#utility.yul\":6882:6897   */\n      revert\n        /* \"#utility.yul\":6909:7089   */\n    tag_121:\n        /* \"#utility.yul\":6957:7034   */\n      0x4e487b7100000000000000000000000000000000000000000000000000000000\n        /* \"#utility.yul\":6954:6955   */\n      0x00\n        /* \"#utility.yul\":6947:7035   */\n      mstore\n        /* \"#utility.yul\":7054:7058   */\n      0x11\n        /* \"#utility.yul\":7051:7052   */\n      0x04\n        /* \"#utility.yul\":7044:7059   */\n      mstore\n        /* \"#utility.yul\":7078:7082   */\n      0x24\n        /* \"#utility.yul\":7075:7076   */\n      0x00\n        /* \"#utility.yul\":7068:7083   */\n      revert\n        /* \"#utility.yul\":7095:7280   */\n    tag_59:\n        /* \"#utility.yul\":7135:7136   */\n      0x00\n        /* \"#utility.yul\":7152:7172   */\n      tag_219\n        /* \"#utility.yul\":7170:7171   */\n      dup3\n        /* \"#utility.yul\":7152:7172   */\n      tag_100\n      jump\t// in\n    tag_219:\n        /* \"#utility.yul\":7147:7172   */\n      swap2\n      pop\n        /* \"#utility.yul\":7186:7206   */\n      tag_220\n        /* \"#utility.yul\":7204:7205   */\n      dup4\n        /* \"#utility.yul\":7186:7206   */\n      tag_100\n      jump\t// in\n    tag_220:\n        /* \"#utility.yul\":7181:7206   */\n      swap3\n      pop\n        /* \"#utility.yul\":7225:7226   */\n      dup3\n        /* \"#utility.yul\":7215:7250   */\n      tag_221\n      jumpi\n        /* \"#utility.yul\":7230:7248   */\n      tag_222\n      tag_120\n      jump\t// in\n    tag_222:\n        /* \"#utility.yul\":7215:7250   */\n    tag_221:\n        /* \"#utility.yul\":7272:7273   */\n      dup3\n        /* \"#utility.yul\":7269:7270   */\n      dup3\n        /* \"#utility.yul\":7265:7274   */\n      div\n        /* \"#utility.yul\":7260:7274   */\n      swap1\n      pop\n        /* \"#utility.yul\":7095:7280   */\n      swap3\n      swap2\n      pop\n      pop\n      jump\t// out\n        /* \"#utility.yul\":7286:7466   */\n    tag_122:\n        /* \"#utility.yul\":7334:7411   */\n      0x4e487b7100000000000000000000000000000000000000000000000000000000\n        /* \"#utility.yul\":7331:7332   */\n      0x00\n        /* \"#utility.yul\":7324:7412   */\n      mstore\n        /* \"#utility.yul\":7431:7435   */\n      0x22\n        /* \"#utility.yul\":7428:7429   */\n      0x04\n        /* \"#utility.yul\":7421:7436   */\n      mstore\n        /* \"#utility.yul\":7455:7459   */\n      0x24\n        /* \"#utility.yul\":7452:7453   */\n      0x00\n        /* \"#utility.yul\":7445:7460   */\n      revert\n        /* \"#utility.yul\":7472:7792   */\n    tag_66:\n        /* \"#utility.yul\":7516:7522   */\n      0x00\n        /* \"#utility.yul\":7553:7554   */\n      0x02\n        /* \"#utility.yul\":7547:7551   */\n      dup3\n        /* \"#utility.yul\":7543:7555   */\n      div\n        /* \"#utility.yul\":7533:7555   */\n      swap1\n      pop\n        /* \"#utility.yul\":7600:7601   */\n      0x01\n        /* \"#utility.yul\":7594:7598   */\n      dup3\n        /* \"#utility.yul\":7590:7602   */\n      and\n        /* \"#utility.yul\":7621:7639   */\n      dup1\n        /* \"#utility.yul\":7611:7692   */\n      tag_225\n      jumpi\n        /* \"#utility.yul\":7677:7681   */\n      0x7f\n        /* \"#utility.yul\":7669:7675   */\n      dup3\n        /* \"#utility.yul\":7665:7682   */\n      and\n        /* \"#utility.yul\":7655:7682   */\n      swap2\n      pop\n        /* \"#utility.yul\":7611:7692   */\n    tag_225:\n        /* \"#utility.yul\":7739:7741   */\n      0x20\n        /* \"#utility.yul\":7731:7737   */\n      dup3\n        /* \"#utility.yul\":7728:7742   */\n      lt\n        /* \"#utility.yul\":7708:7726   */\n      dup2\n        /* \"#utility.yul\":7705:7743   */\n      sub\n        /* \"#utility.yul\":7702:7786   */\n      tag_226\n      jumpi\n        /* \"#utility.yul\":7758:7776   */\n      tag_227\n      tag_122\n      jump\t// in\n    tag_227:\n        /* \"#utility.yul\":7702:7786   */\n    tag_226:\n        /* \"#utility.yul\":7523:7792   */\n      pop\n        /* \"#utility.yul\":7472:7792   */\n      swap2\n      swap1\n      pop\n      jump\t// out\n        /* \"#utility.yul\":7798:7895   */\n    tag_123:\n        /* \"#utility.yul\":7857:7863   */\n      0x00\n        /* \"#utility.yul\":7885:7888   */\n      dup3\n        /* \"#utility.yul\":7875:7888   */\n      swap1\n      pop\n        /* \"#utility.yul\":7798:7895   */\n      swap3\n      swap2\n      pop\n      pop\n      jump\t// out\n        /* \"#utility.yul\":7901:8081   */\n    tag_124:\n        /* \"#utility.yul\":7949:8026   */\n      0x4e487b7100000000000000000000000000000000000000000000000000000000\n        /* \"#utility.yul\":7946:7947   */\n      0x00\n        /* \"#utility.yul\":7939:8027   */\n      mstore\n        /* \"#utility.yul\":8046:8050   */\n      0x41\n        /* \"#utility.yul\":8043:8044   */\n      0x04\n        /* \"#utility.yul\":8036:8051   */\n      mstore\n        /* \"#utility.yul\":8070:8074   */\n      0x24\n        /* \"#utility.yul\":8067:8068   */\n      0x00\n        /* \"#utility.yul\":8060:8075   */\n      revert\n        /* \"#utility.yul\":8087:8228   */\n    tag_125:\n        /* \"#utility.yul\":8136:8140   */\n      0x00\n        /* \"#utility.yul\":8159:8162   */\n      dup2\n        /* \"#utility.yul\":8151:8162   */\n      swap1\n      pop\n        /* \"#utility.yul\":8182:8185   */\n      dup2\n        /* \"#utility.yul\":8179:8180   */\n      0x00\n        /* \"#utility.yul\":8172:8186   */\n      mstore\n        /* \"#utility.yul\":8216:8220   */\n      0x20\n        /* \"#utility.yul\":8213:8214   */\n      0x00\n        /* \"#utility.yul\":8203:8221   */\n      keccak256\n        /* \"#utility.yul\":8195:8221   */\n      swap1\n      pop\n        /* \"#utility.yul\":8087:8228   */\n      swap2\n      swap1\n      pop\n      jump\t// out\n        /* \"#utility.yul\":8234:8327   */\n    tag_126:\n        /* \"#utility.yul\":8271:8277   */\n      0x00\n        /* \"#utility.yul\":8318:8320   */\n      0x20\n        /* \"#utility.yul\":8313:8315   */\n      0x1f\n        /* \"#utility.yul\":8306:8311   */\n      dup4\n        /* \"#utility.yul\":8302:8316   */\n      add\n        /* \"#utility.yul\":8298:8321   */\n      div\n        /* \"#utility.yul\":8288:8321   */\n      swap1\n      pop\n        /* \"#utility.yul\":8234:8327   */\n      swap2\n      swap1\n      pop\n      jump\t// out\n        /* \"#utility.yul\":8333:8440   */\n    tag_127:\n        /* \"#utility.yul\":8377:8385   */\n      0x00\n        /* \"#utility.yul\":8427:8432   */\n      dup3\n        /* \"#utility.yul\":8421:8425   */\n      dup3\n        /* \"#utility.yul\":8417:8433   */\n      shl\n        /* \"#utility.yul\":8396:8433   */\n      swap1\n      pop\n        /* \"#utility.yul\":8333:8440   */\n      swap3\n      swap2\n      pop\n      pop\n      jump\t// out\n        /* \"#utility.yul\":8446:8839   */\n    tag_128:\n        /* \"#utility.yul\":8515:8521   */\n      0x00\n        /* \"#utility.yul\":8565:8566   */\n      0x08\n        /* \"#utility.yul\":8553:8563   */\n      dup4\n        /* \"#utility.yul\":8549:8567   */\n      mul\n        /* \"#utility.yul\":8588:8685   */\n      tag_234\n        /* \"#utility.yul\":8618:8684   */\n      0xffffffffffffffffffffffffffffffffffffffffffffffffffffffffffffffff\n        /* \"#utility.yul\":8607:8616   */\n      dup3\n        /* \"#utility.yul\":8588:8685   */\n      tag_127\n      jump\t// in\n    tag_234:\n        /* \"#utility.yul\":8706:8745   */\n      tag_235\n        /* \"#utility.yul\":8736:8744   */\n      dup7\n        /* \"#utility.yul\":8725:8734   */\n      dup4\n        /* \"#utility.yul\":8706:8745   */\n      tag_127\n      jump\t// in\n    tag_235:\n        /* \"#utility.yul\":8694:8745   */\n      swap6\n      pop\n        /* \"#utility.yul\":8778:8782   */\n      dup1\n        /* \"#utility.yul\":8774:8783   */\n      not\n        /* \"#utility.yul\":8767:8772   */\n      dup5\n        /* \"#utility.yul\":8763:8784   */\n      and\n        /* \"#utility.yul\":8754:8784   */\n      swap4\n      pop\n        /* \"#utility.yul\":8827:8831   */\n      dup1\n        /* \"#utility.yul\":8817:8825   */\n      dup7\n        /* \"#utility.yul\":8813:8832   */\n      and\n        /* \"#utility.yul\":8806:8811   */\n      dup5\n        /* \"#utility.yul\":8803:8833   */\n      or\n        /* \"#utility.yul\":8793:8833   */\n      swap3\n      pop\n        /* \"#utility.yul\":8522:8839   */\n      pop\n      pop\n        /* \"#utility.yul\":8446:8839   */\n      swap4\n      swap3\n      pop\n      pop\n      pop\n      jump\t// out\n        /* \"#utility.yul\":8845:8905   */\n    tag_129:\n        /* \"#utility.yul\":8873:8876   */\n      0x00\n        /* \"#utility.yul\":8894:8899   */\n      dup2\n        /* \"#utility.yul\":8887:8899   */\n      swap1\n      pop\n        /* \"#utility.yul\":8845:8905   */\n      swap2\n      swap1\n      pop\n      jump\t// out\n        /* \"#utility.yul\":8911:9053   */\n    tag_130:\n        /* \"#utility.yul\":8961:8970   */\n      0x00\n        /* \"#utility.yul\":8994:9047   */\n      tag_238\n        /* \"#utility.yul\":9012:9046   */\n      tag_239\n        /* \"#utility.yul\":9021:9045   */\n      tag_240\n        /* \"#utility.yul\":9039:9044   */\n      dup5\n        /* \"#utility.yul\":9021:9045   */\n      tag_100\n      jump\t// in\n    tag_240:\n        /* \"#utility.yul\":9012:9046   */\n      tag_129\n      jump\t// in\n    tag_239:\n        /* \"#utility.yul\":8994:9047   */\n      tag_100\n      jump\t// in\n    tag_238:\n        /* \"#utility.yul\":8981:9047   */\n      swap1\n      pop\n        /* \"#utility.yul\":8911:9053   */\n      swap2\n      swap1\n      pop\n      jump\t// out\n        /* \"#utility.yul\":9059:9134   */\n    tag_131:\n        /* \"#utility.yul\":9102:9105   */\n      0x00\n        /* \"#utility.yul\":9123:9128   */\n      dup2\n        /* \"#utility.yul\":9116:9128   */\n      swap1\n      pop\n        /* \"#utility.yul\":9059:9134   */\n      swap2\n      swap1\n      pop\n      jump\t// out\n        /* \"#utility.yul\":9140:9409   */\n    tag_132:\n        /* \"#utility.yul\":9250:9289   */\n      tag_243\n        /* \"#utility.yul\":9281:9288   */\n      dup4\n        /* \"#utility.yul\":9250:9289   */\n      tag_130\n      jump\t// in\n    tag_243:\n        /* \"#utility.yul\":9311:9402   */\n      tag_244\n        /* \"#utility.yul\":9360:9401   */\n      tag_245\n        /* \"#utility.yul\":9384:9400   */\n      dup3\n        /* \"#utility.yul\":9360:9401   */\n      tag_131\n      jump\t// in\n    tag_245:\n        /* \"#utility.yul\":9352:9358   */\n      dup5\n        /* \"#utility.yul\":9345:9349   */\n      dup5\n        /* \"#utility.yul\":9339:9350   */\n      sload\n        /* \"#utility.yul\":9311:9402   */\n      tag_128\n      jump\t// in\n    tag_244:\n        /* \"#utility.yul\":9305:9309   */\n      dup3\n        /* \"#utility.yul\":9298:9403   */\n      sstore\n        /* \"#utility.yul\":9216:9409   */\n      pop\n        /* \"#utility.yul\":9140:9409   */\n      pop\n      pop\n      pop\n      jump\t// out\n        /* \"#utility.yul\":9415:9488   */\n    tag_133:\n        /* \"#utility.yul\":9460:9463   */\n      0x00\n        /* \"#utility.yul\":9415:9488   */\n      swap1\n      jump\t// out\n        /* \"#utility.yul\":9494:9683   */\n    tag_134:\n        /* \"#utility.yul\":9571:9603   */\n      tag_248\n      tag_133\n      jump\t// in\n    tag_248:\n        /* \"#utility.yul\":9612:9677   */\n      tag_249\n        /* \"#utility.yul\":9670:9676   */\n      dup2\n        /* \"#utility.yul\":9662:9668   */\n      dup5\n        /* \"#utility.yul\":9656:9660   */\n      dup5\n        /* \"#utility.yul\":9612:9677   */\n      tag_132\n      jump\t// in\n    tag_249:\n        /* \"#utility.yul\":9547:9683   */\n      pop\n        /* \"#utility.yul\":9494:9683   */\n      pop\n      pop\n      jump\t// out\n        /* \"#utility.yul\":9689:9875   */\n    tag_135:\n        /* \"#utility.yul\":9749:9869   */\n    tag_251:\n        /* \"#utility.yul\":9766:9769   */\n      dup2\n        /* \"#utility.yul\":9759:9764   */\n      dup2\n        /* \"#utility.yul\":9756:9770   */\n      lt\n        /* \"#utility.yul\":9749:9869   */\n      iszero\n      tag_253\n      jumpi\n        /* \"#utility.yul\":9820:9859   */\n      tag_254\n        /* \"#utility.yul\":9857:9858   */\n      0x00\n        /* \"#utility.yul\":9850:9855   */\n      dup3\n        /* \"#utility.yul\":9820:9859   */\n      tag_134\n      jump\t// in\n    tag_254:\n        /* \"#utility.yul\":9793:9794   */\n      0x01\n        /* \"#utility.yul\":9786:9791   */\n      dup2\n        /* \"#utility.yul\":9782:9795   */\n      add\n        /* \"#utility.yul\":9773:9795   */\n      swap1\n      pop\n        /* \"#utility.yul\":9749:9869   */\n      jump(tag_251)\n    tag_253:\n        /* \"#utility.yul\":9689:9875   */\n      pop\n      pop\n      jump\t// out\n        /* \"#utility.yul\":9881:10424   */\n    tag_136:\n        /* \"#utility.yul\":9982:9984   */\n      0x1f\n        /* \"#utility.yul\":9977:9980   */\n      dup3\n        /* \"#utility.yul\":9974:9985   */\n      gt\n        /* \"#utility.yul\":9971:10417   */\n      iszero\n      tag_256\n      jumpi\n        /* \"#utility.yul\":10016:10054   */\n      tag_257\n        /* \"#utility.yul\":10048:10053   */\n      dup2\n        /* \"#utility.yul\":10016:10054   */\n      tag_125\n      jump\t// in\n    tag_257:\n        /* \"#utility.yul\":10100:10129   */\n      tag_258\n        /* \"#utility.yul\":10118:10128   */\n      dup5\n        /* \"#utility.yul\":10100:10129   */\n      tag_126\n      jump\t// in\n    tag_258:\n        /* \"#utility.yul\":10090:10098   */\n      dup2\n        /* \"#utility.yul\":10086:10130   */\n      add\n        /* \"#utility.yul\":10283:10285   */\n      0x20\n        /* \"#utility.yul\":10271:10281   */\n      dup6\n        /* \"#utility.yul\":10268:10286   */\n      lt\n        /* \"#utility.yul\":10265:10314   */\n      iszero\n      tag_259\n      jumpi\n        /* \"#utility.yul\":10304:10312   */\n      dup2\n        /* \"#utility.yul\":10289:10312   */\n      swap1\n      pop\n        /* \"#utility.yul\":10265:10314   */\n    tag_259:\n        /* \"#utility.yul\":10327:10407   */\n      tag_260\n        /* \"#utility.yul\":10383:10405   */\n      tag_261\n        /* \"#utility.yul\":10401:10404   */\n      dup6\n        /* \"#utility.yul\":10383:10405   */\n      tag_126\n      jump\t// in\n    tag_261:\n        /* \"#utility.yul\":10373:10381   */\n      dup4\n        /* \"#utility.yul\":10369:10406   */\n      add\n        /* \"#utility.yul\":10356:10367   */\n      dup3\n        /* \"#utility.yul\":10327:10407   */\n      tag_135\n      jump\t// in\n    tag_260:\n        /* \"#utility.yul\":9986:10417   */\n      pop\n      pop\n        /* \"#utility.yul\":9971:10417   */\n    tag_256:\n        /* \"#utility.yul\":9881:10424   */\n      pop\n      pop\n      pop\n      jump\t// out\n        /* \"#utility.yul\":10430:10547   */\n    tag_137:\n        /* \"#utility.yul\":10484:10492   */\n      0x00\n        /* \"#utility.yul\":10534:10539   */\n      dup3\n        /* \"#utility.yul\":10528:10532   */\n      dup3\n        /* \"#utility.yul\":10524:10540   */\n      shr\n        /* \"#utility.yul\":10503:10540   */\n      swap1\n      pop\n        /* \"#utility.yul\":10430:10547   */\n      swap3\n      swap2\n      pop\n      pop\n      jump\t// out\n        /* \"#utility.yul\":10553:10722   */\n    tag_138:\n        /* \"#utility.yul\":10597:10603   */\n      0x00\n        /* \"#utility.yul\":10630:10681   */\n      tag_264\n        /* \"#utility.yul\":10678:10679   */\n      0x00\n        /* \"#utility.yul\":10674:10680   */\n      not\n        /* \"#utility.yul\":10666:10671   */\n      dup5\n        /* \"#utility.yul\":10663:10664   */\n      0x08\n        /* \"#utility.yul\":10659:10672   */\n      mul\n        /* \"#utility.yul\":10630:10681   */\n      tag_137\n      jump\t// in\n    tag_264:\n        /* \"#utility.yul\":10626:10682   */\n      not\n        /* \"#utility.yul\":10711:10715   */\n      dup1\n        /* \"#utility.yul\":10705:10709   */\n      dup4\n        /* \"#utility.yul\":10701:10716   */\n      and\n        /* \"#utility.yul\":10691:10716   */\n      swap2\n      pop\n        /* \"#utility.yul\":10604:10722   */\n      pop\n        /* \"#utility.yul\":10553:10722   */\n      swap3\n      swap2\n      pop\n      pop\n      jump\t// out\n        /* \"#utility.yul\":10727:11022   */\n    tag_139:\n        /* \"#utility.yul\":10803:10807   */\n      0x00\n        /* \"#utility.yul\":10949:10978   */\n      tag_266\n        /* \"#utility.yul\":10974:10977   */\n      dup4\n        /* \"#utility.yul\":10968:10972   */\n      dup4\n        /* \"#utility.yul\":10949:10978   */\n      tag_138\n      jump\t// in\n    tag_266:\n        /* \"#utility.yul\":10941:10978   */\n      swap2\n      pop\n        /* \"#utility.yul\":11011:11014   */\n      dup3\n        /* \"#utility.yul\":11008:11009   */\n      0x02\n        /* \"#utility.yul\":11004:11015   */\n      mul\n        /* \"#utility.yul\":10998:11002   */\n      dup3\n        /* \"#utility.yul\":10995:11016   */\n      or\n        /* \"#utility.yul\":10987:11016   */\n      swap1\n      pop\n        /* \"#utility.yul\":10727:11022   */\n      swap3\n      swap2\n      pop\n      pop\n      jump\t// out\n        /* \"#utility.yul\":11027:12430   */\n    tag_79:\n        /* \"#utility.yul\":11151:11195   */\n      tag_268\n        /* \"#utility.yul\":11191:11194   */\n      dup4\n        /* \"#utility.yul\":11186:11189   */\n      dup4\n        /* \"#utility.yul\":11151:11195   */\n      tag_123\n      jump\t// in\n    tag_268:\n        /* \"#utility.yul\":11260:11278   */\n      0xffffffffffffffff\n        /* \"#utility.yul\":11252:11258   */\n      dup2\n        /* \"#utility.yul\":11249:11279   */\n      gt\n        /* \"#utility.yul\":11246:11302   */\n      iszero\n      tag_269\n      jumpi\n        /* \"#utility.yul\":11282:11300   */\n      tag_270\n      tag_124\n      jump\t// in\n    tag_270:\n        /* \"#utility.yul\":11246:11302   */\n    tag_269:\n        /* \"#utility.yul\":11326:11364   */\n      tag_271\n        /* \"#utility.yul\":11358:11362   */\n      dup3\n        /* \"#utility.yul\":11352:11363   */\n      sload\n        /* \"#utility.yul\":11326:11364   */\n      tag_66\n      jump\t// in\n    tag_271:\n        /* \"#utility.yul\":11411:11478   */\n      tag_272\n        /* \"#utility.yul\":11471:11477   */\n      dup3\n        /* \"#utility.yul\":11463:11469   */\n      dup3\n        /* \"#utility.yul\":11457:11461   */\n      dup6\n        /* \"#utility.yul\":11411:11478   */\n      tag_136\n      jump\t// in\n    tag_272:\n        /* \"#utility.yul\":11505:11506   */\n      0x00\n        /* \"#utility.yul\":11534:11536   */\n      0x1f\n        /* \"#utility.yul\":11526:11532   */\n      dup4\n        /* \"#utility.yul\":11523:11537   */\n      gt\n        /* \"#utility.yul\":11551:11552   */\n      0x01\n        /* \"#utility.yul\":11546:12178   */\n      dup2\n      eq\n      tag_274\n      jumpi\n        /* \"#utility.yul\":12222:12223   */\n      0x00\n        /* \"#utility.yul\":12239:12245   */\n      dup5\n        /* \"#utility.yul\":12236:12320   */\n      iszero\n      tag_275\n      jumpi\n        /* \"#utility.yul\":12295:12304   */\n      dup3\n        /* \"#utility.yul\":12290:12293   */\n      dup8\n        /* \"#utility.yul\":12286:12305   */\n      add\n        /* \"#utility.yul\":12273:12306   */\n      calldataload\n        /* \"#utility.yul\":12264:12306   */\n      swap1\n      pop\n        /* \"#utility.yul\":12236:12320   */\n    tag_275:\n        /* \"#utility.yul\":12346:12413   */\n      tag_276\n        /* \"#utility.yul\":12406:12412   */\n      dup6\n        /* \"#utility.yul\":12399:12404   */\n      dup3\n        /* \"#utility.yul\":12346:12413   */\n      tag_139\n      jump\t// in\n    tag_276:\n        /* \"#utility.yul\":12340:12344   */\n      dup7\n        /* \"#utility.yul\":12333:12414   */\n      sstore\n        /* \"#utility.yul\":12195:12424   */\n      pop\n        /* \"#utility.yul\":11516:12424   */\n      jump(tag_273)\n        /* \"#utility.yul\":11546:12178   */\n    tag_274:\n        /* \"#utility.yul\":11598:11602   */\n      0x1f\n        /* \"#utility.yul\":11594:11603   */\n      not\n        /* \"#utility.yul\":11586:11592   */\n      dup5\n        /* \"#utility.yul\":11582:11604   */\n      and\n        /* \"#utility.yul\":11632:11669   */\n      tag_277\n        /* \"#utility.yul\":11664:11668   */\n      dup7\n        /* \"#utility.yul\":11632:11669   */\n      tag_125\n      jump\t// in\n    tag_277:\n        /* \"#utility.yul\":11691:11692   */\n      0x00\n        /* \"#utility.yul\":11705:11920   */\n    tag_278:\n        /* \"#utility.yul\":11719:11726   */\n      dup3\n        /* \"#utility.yul\":11716:11717   */\n      dup2\n        /* \"#utility.yul\":11713:11727   */\n      lt\n        /* \"#utility.yul\":11705:11920   */\n      iszero\n      tag_280\n      jumpi\n        /* \"#utility.yul\":11805:11814   */\n      dup5\n        /* \"#utility.yul\":11800:11803   */\n      dup10\n        /* \"#utility.yul\":11796:11815   */\n      add\n        /* \"#utility.yul\":11783:11816   */\n      calldataload\n        /* \"#utility.yul\":11775:11781   */\n      dup3\n        /* \"#utility.yul\":11768:11817   */\n      sstore\n        /* \"#utility.yul\":11856:11857   */\n      0x01\n        /* \"#utility.yul\":11848:11854   */\n      dup3\n        /* \"#utility.yul\":11844:11858   */\n      add\n        /* \"#utility.yul\":11834:11858   */\n      swap2\n      pop\n        /* \"#utility.yul\":11903:11905   */\n      0x20\n        /* \"#utility.yul\":11892:11901   */\n      dup6\n        /* \"#utility.yul\":11888:11906   */\n      add\n        /* \"#utility.yul\":11875:11906   */\n      swap5\n      pop\n        /* \"#utility.yul\":11742:11746   */\n      0x20\n        /* \"#utility.yul\":11739:11740   */\n      dup2\n        /* \"#utility.yul\":11735:11747   */\n      add\n        /* \"#utility.yul\":11730:11747   */\n      swap1\n      pop\n        /* \"#utility.yul\":11705:11920   */\n      jump(tag_278)\n    tag_280:\n        /* \"#utility.yul\":11948:11954   */\n      dup7\n        /* \"#utility.yul\":11939:11946   */\n      dup4\n        /* \"#utility.yul\":11936:11955   */\n      lt\n        /* \"#utility.yul\":11933:12119   */\n      iszero\n      tag_281\n      jumpi\n        /* \"#utility.yul\":12013:12022   */\n      dup5\n        /* \"#utility.yul\":12008:12011   */\n      dup10\n        /* \"#utility.yul\":12004:12023   */\n      add\n        /* \"#utility.yul\":11991:12024   */\n      calldataload\n        /* \"#utility.yul\":12056:12104   */\n      tag_282\n        /* \"#utility.yul\":12098:12102   */\n      0x1f\n        /* \"#utility.yul\":12090:12096   */\n      dup10\n        /* \"#utility.yul\":12086:12103   */\n      and\n        /* \"#utility.yul\":12075:12084   */\n      dup3\n        /* \"#utility.yul\":12056:12104   */\n      tag_138\n      jump\t// in\n    tag_282:\n        /* \"#utility.yul\":12048:12054   */\n      dup4\n        /* \"#utility.yul\":12041:12105   */\n      sstore\n        /* \"#utility.yul\":11956:12119   */\n      pop\n        /* \"#utility.yul\":11933:12119   */\n    tag_281:\n        /* \"#utility.yul\":12165:12166   */\n      0x01\n        /* \"#utility.yul\":12161:12162   */\n      0x02\n        /* \"#utility.yul\":12153:12159   */\n      dup9\n        /* \"#utility.yul\":12149:12163   */\n      mul\n        /* \"#utility.yul\":12145:12167   */\n      add\n        /* \"#utility.yul\":12139:12143   */\n      dup9\n        /* \"#utility.yul\":12132:12168   */\n      sstore\n        /* \"#utility.yul\":11553:12178   */\n      pop\n      pop\n      pop\n        /* \"#utility.yul\":11516:12424   */\n    tag_273:\n      pop\n        /* \"#utility.yul\":11126:12430   */\n      pop\n      pop\n      pop\n        /* \"#utility.yul\":11027:12430   */\n      pop\n      pop\n      pop\n      jump\t// out\n        /* \"#utility.yul\":12436:12669   */\n    tag_83:\n        /* \"#utility.yul\":12475:12478   */\n      0x00\n        /* \"#utility.yul\":12498:12522   */\n      tag_284\n        /* \"#utility.yul\":12516:12521   */\n      dup3\n        /* \"#utility.yul\":12498:12522   */\n      tag_100\n      jump\t// in\n    tag_284:\n        /* \"#utility.yul\":12489:12522   */\n      swap2\n      pop\n        /* \"#utility.yul\":12544:12610   */\n      0xffffffffffffffffffffffffffffffffffffffffffffffffffffffffffffffff\n        /* \"#utility.yul\":12537:12542   */\n      dup3\n        /* \"#utility.yul\":12534:12611   */\n      sub\n        /* \"#utility.yul\":12531:12634   */\n      tag_285\n      jumpi\n        /* \"#utility.yul\":12614:12632   */\n      tag_286\n      tag_121\n      jump\t// in\n    tag_286:\n        /* \"#utility.yul\":12531:12634   */\n    tag_285:\n        /* \"#utility.yul\":12661:12662   */\n      0x01\n        /* \"#utility.yul\":12654:12659   */\n      dup3\n        /* \"#utility.yul\":12650:12663   */\n      add\n        /* \"#utility.yul\":12643:12663   */\n      swap1\n      pop\n        /* \"#utility.yul\":12436:12669   */\n      swap2\n      swap1\n      pop\n      jump\t// out\n\n    auxdata: 0xa2646970667358221220a2a49c1f980ff60595c2a228b5f72673f0acb1910b0dda1f888f531c597b706464736f6c63430008160033\n}\n","bytecode":{"linkReferences":{},"object":"608060405234801562000010575f80fd5b506040516200102738038062001027833981810160405281019062000036919062000121565b805f806101000a81548173ffffffffffffffffffffffffffffffffffffffff021916908373ffffffffffffffffffffffffffffffffffffffff16021790555081600381905550505062000166565b5f80fd5b5f819050919050565b6200009c8162000088565b8114620000a7575f80fd5b50565b5f81519050620000ba8162000091565b92915050565b5f73ffffffffffffffffffffffffffffffffffffffff82169050919050565b5f620000eb82620000c0565b9050919050565b620000fd81620000df565b811462000108575f80fd5b50565b5f815190506200011b81620000f2565b92915050565b5f80604083850312156200013a576200013962000084565b5b5f6200014985828601620000aa565b92505060206200015c858286016200010b565b9150509250929050565b610eb380620001745f395ff3fe60806040526004361061007a575f3560e01c806382fde0931161004d57806382fde0931461014c5780638a9cfd5514610176578063d7bb99ba1461019e578063d7d1bbdb146101a85761007a565b8063034410061461007e5780630a144391146100a6578063481c6a75146100e257806381d12c581461010c575b5f80fd5b348015610089575f80fd5b506100a4600480360381019061009f919061079a565b6101d0565b005b3480156100b1575f80fd5b506100cc60048036038101906100c7919061081f565b61030c565b6040516100d99190610864565b60405180910390f35b3480156100ed575f80fd5b506100f6610329565b604051610103919061088c565b60405180910390f35b348015610117575f80fd5b50610132600480360381019061012d919061079a565b61034c565b60405161014395949392919061093e565b60405180910390f35b348015610157575f80fd5b5061016061043f565b60405161016d9190610996565b60405180910390f35b348015610181575f80fd5b5061019c60048036038101906101979190610a10565b610445565b005b6101a661056e565b005b3480156101b3575f80fd5b506101ce60048036038101906101c9919061079a565b6105e8565b005b5f8054906101000a900473ffffffffffffffffffffffffffffffffffffffff1673ffffffffffffffffffffffffffffffffffffffff163373ffffffffffffffffffffffffffffffffffffffff1614610226575f80fd5b5f6004828154811061023b5761023a610a81565b5b905f5260205f20906005020190508060020160149054906101000a900460ff1615610264575f80fd5b600280546102729190610b08565b816004015411610280575f80fd5b60018160020160146101000a81548160ff021916908315150217905550806002015f9054906101000a900473ffffffffffffffffffffffffffffffffffffffff1673ffffffffffffffffffffffffffffffffffffffff166108fc826001015490811502906040515f60405180830381858888f19350505050158015610307573d5f803e3d5ffd5b505050565b6001602052805f5260405f205f915054906101000a900460ff1681565b5f8054906101000a900473ffffffffffffffffffffffffffffffffffffffff1681565b6004818154811061035b575f80fd5b905f5260205f2090600502015f91509050805f01805461037a90610b65565b80601f01602080910402602001604051908101604052809291908181526020018280546103a690610b65565b80156103f15780601f106103c8576101008083540402835291602001916103f1565b820191905f5260205f20905b8154815290600101906020018083116103d457829003601f168201915b505050505090806001015490806002015f9054906101000a900473ffffffffffffffffffffffffffffffffffffffff16908060020160149054906101000a900460ff16908060040154905085565b60025481565b5f8054906101000a900473ffffffffffffffffffffffffffffffffffffffff1673ffffffffffffffffffffffffffffffffffffffff163373ffffffffffffffffffffffffffffffffffffffff161461049b575f80fd5b5f6004805490509050600460018160018154018082558091505003905f5260205f209050505f600482815481106104d5576104d4610a81565b5b905f5260205f20906005020190508585825f0191826104f5929190610d69565b5083816001018190555082816002015f6101000a81548173ffffffffffffffffffffffffffffffffffffffff021916908373ffffffffffffffffffffffffffffffffffffffff1602179055505f8160020160146101000a81548160ff0219169083151502179055505f8160040181905550505050505050565b600354341161057b575f80fd5b6001805f3373ffffffffffffffffffffffffffffffffffffffff1673ffffffffffffffffffffffffffffffffffffffff1681526020019081526020015f205f6101000a81548160ff02191690831515021790555060025f8154809291906105e190610e36565b9190505550565b60015f3373ffffffffffffffffffffffffffffffffffffffff1673ffffffffffffffffffffffffffffffffffffffff1681526020019081526020015f205f9054906101000a900460ff1661063a575f80fd5b6004818154811061064e5761064d610a81565b5b905f5260205f2090600502016003015f3373ffffffffffffffffffffffffffffffffffffffff1673ffffffffffffffffffffffffffffffffffffffff1681526020019081526020015f205f9054906101000a900460ff16156106ae575f80fd5b6001600482815481106106c4576106c3610a81565b5b905f5260205f2090600502016003015f3373ffffffffffffffffffffffffffffffffffffffff1673ffffffffffffffffffffffffffffffffffffffff1681526020019081526020015f205f6101000a81548160ff0219169083151502179055506004818154811061073857610737610a81565b5b905f5260205f2090600502016004015f81548092919061075790610e36565b919050555050565b5f80fd5b5f80fd5b5f819050919050565b61077981610767565b8114610783575f80fd5b50565b5f8135905061079481610770565b92915050565b5f602082840312156107af576107ae61075f565b5b5f6107bc84828501610786565b91505092915050565b5f73ffffffffffffffffffffffffffffffffffffffff82169050919050565b5f6107ee826107c5565b9050919050565b6107fe816107e4565b8114610808575f80fd5b50565b5f81359050610819816107f5565b92915050565b5f602082840312156108345761083361075f565b5b5f6108418482850161080b565b91505092915050565b5f8115159050919050565b61085e8161084a565b82525050565b5f6020820190506108775f830184610855565b92915050565b610886816107e4565b82525050565b5f60208201905061089f5f83018461087d565b92915050565b5f81519050919050565b5f82825260208201905092915050565b5f5b838110156108dc5780820151818401526020810190506108c1565b5f8484015250505050565b5f601f19601f8301169050919050565b5f610901826108a5565b61090b81856108af565b935061091b8185602086016108bf565b610924816108e7565b840191505092915050565b61093881610767565b82525050565b5f60a0820190508181035f83015261095681886108f7565b9050610965602083018761092f565b610972604083018661087d565b61097f6060830185610855565b61098c608083018461092f565b9695505050505050565b5f6020820190506109a95f83018461092f565b92915050565b5f80fd5b5f80fd5b5f80fd5b5f8083601f8401126109d0576109cf6109af565b5b8235905067ffffffffffffffff8111156109ed576109ec6109b3565b5b602083019150836001820283011115610a0957610a086109b7565b5b9250929050565b5f805f8060608587031215610a2857610a2761075f565b5b5f85013567ffffffffffffffff811115610a4557610a44610763565b5b610a51878288016109bb565b94509450506020610a6487828801610786565b9250506040610a758782880161080b565b91505092959194509250565b7f4e487b71000000000000000000000000000000000000000000000000000000005f52603260045260245ffd5b7f4e487b71000000000000000000000000000000000000000000000000000000005f52601260045260245ffd5b7f4e487b71000000000000000000000000000000000000000000000000000000005f52601160045260245ffd5b5f610b1282610767565b9150610b1d83610767565b925082610b2d57610b2c610aae565b5b828204905092915050565b7f4e487b71000000000000000000000000000000000000000000000000000000005f52602260045260245ffd5b5f6002820490506001821680610b7c57607f821691505b602082108103610b8f57610b8e610b38565b5b50919050565b5f82905092915050565b7f4e487b71000000000000000000000000000000000000000000000000000000005f52604160045260245ffd5b5f819050815f5260205f209050919050565b5f6020601f8301049050919050565b5f82821b905092915050565b5f60088302610c287fffffffffffffffffffffffffffffffffffffffffffffffffffffffffffffffff82610bed565b610c328683610bed565b95508019841693508086168417925050509392505050565b5f819050919050565b5f610c6d610c68610c6384610767565b610c4a565b610767565b9050919050565b5f819050919050565b610c8683610c53565b610c9a610c9282610c74565b848454610bf9565b825550505050565b5f90565b610cae610ca2565b610cb9818484610c7d565b505050565b5b81811015610cdc57610cd15f82610ca6565b600181019050610cbf565b5050565b601f821115610d2157610cf281610bcc565b610cfb84610bde565b81016020851015610d0a578190505b610d1e610d1685610bde565b830182610cbe565b50505b505050565b5f82821c905092915050565b5f610d415f1984600802610d26565b1980831691505092915050565b5f610d598383610d32565b9150826002028217905092915050565b610d738383610b95565b67ffffffffffffffff811115610d8c57610d8b610b9f565b5b610d968254610b65565b610da1828285610ce0565b5f601f831160018114610dce575f8415610dbc578287013590505b610dc68582610d4e565b865550610e2d565b601f198416610ddc86610bcc565b5f5b82811015610e0357848901358255600182019150602085019450602081019050610dde565b86831015610e205784890135610e1c601f891682610d32565b8355505b6001600288020188555050505b50505050505050565b5f610e4082610767565b91507fffffffffffffffffffffffffffffffffffffffffffffffffffffffffffffffff8203610e7257610e71610adb565b5b60018201905091905056fea2646970667358221220a2a49c1f980ff60595c2a228b5f72673f0acb1910b0dda1f888f531c597b706464736f6c63430008160033","opcodes":"PUSH1 0x80 PUSH1 0x40 MSTORE CALLVALUE DUP1 ISZERO PUSH3 0x10 JUMPI PUSH0 DUP1 REVERT JUMPDEST POP PUSH1 0x40 MLOAD PUSH3 0x1027 CODESIZE SUB DUP1 PUSH3 0x1027 DUP4 CODECOPY DUP2 DUP2 ADD PUSH1 0x40 MSTORE DUP2 ADD SWAP1 PUSH3 0x36 SWAP2 SWAP1 PUSH3 0x121 JUMP JUMPDEST DUP1 PUSH0 DUP1 PUSH2 0x100 EXP DUP2 SLOAD DUP2 PUSH20 0xFFFFFFFFFFFFFFFFFFFFFFFFFFFFFFFFFFFFFFFF MUL NOT AND SWAP1 DUP4 PUSH20 0xFFFFFFFFFFFFFFFFFFFFFFFFFFFFFFFFFFFFFFFF AND MUL OR SWAP1 SSTORE POP DUP2 PUSH1 0x3 DUP2 SWAP1 SSTORE POP POP POP PUSH3 0x166 JUMP JUMPDEST PUSH0 DUP1 REVERT JUMPDEST PUSH0 DUP2 SWAP1 POP SWAP2 SWAP1 POP JUMP JUMPDEST PUSH3 0x9C DUP2 PUSH3 0x88 JUMP JUMPDEST DUP2 EQ PUSH3 0xA7 JUMPI PUSH0 DUP1 REVERT JUMPDEST POP JUMP JUMPDEST PUSH0 DUP2 MLOAD SWAP1 POP PUSH3 0xBA DUP2 PUSH3 0x91 JUMP JUMPDEST SWAP3 SWAP2 POP POP JUMP JUMPDEST PUSH0 PUSH20 0xFFFFFFFFFFFFFFFFFFFFFFFFFFFFFFFFFFFFFFFF DUP3 AND SWAP1 POP SWAP2 SWAP1 POP JUMP JUMPDEST PUSH0 PUSH3 0xEB DUP3 PUSH3 0xC0 JUMP JUMPDEST SWAP1 POP SWAP2 SWAP1 POP JUMP JUMPDEST PUSH3 0xFD DUP2 PUSH3 0xDF JUMP JUMPDEST DUP2 EQ PUSH3 0x108 JUMPI PUSH0 DUP1 REVERT JUMPDEST POP JUMP JUMPDEST PUSH0 DUP2 MLOAD SWAP1 POP PUSH3 0x11B DUP2 PUSH3 0xF2 JUMP JUMPDEST SWAP3 SWAP2 POP POP JUMP JUMPDEST PUSH0 DUP1 PUSH1 0x40 DUP4 DUP6 SUB SLT ISZERO PUSH3 0x13A JUMPI PUSH3 0x139 PUSH3 0x84 JUMP JUMPDEST JUMPDEST PUSH0 PUSH3 0x149 DUP6 DUP3 DUP7 ADD PUSH3 0xAA JUMP JUMPDEST SWAP3 POP POP PUSH1 0x20 PUSH3 0x15C DUP6 DUP3 DUP7 ADD PUSH3 0x10B JUMP JUMPDEST SWAP2 POP POP SWAP3 POP SWAP3 SWAP1 POP JUMP JUMPDEST PUSH2 0xEB3 DUP1 PUSH3 0x174 PUSH0 CODECOPY PUSH0 RETURN INVALID PUSH1 0x80 PUSH1 0x40 MSTORE PUSH1 0x4 CALLDATASIZE LT PUSH2 0x7A JUMPI PUSH0 CALLDATALOAD PUSH1 0xE0 SHR DUP1 PUSH4 0x82FDE093 GT PUSH2 0x4D JUMPI DUP1 PUSH4 0x82FDE093 EQ PUSH2 0x14C JUMPI DUP1 PUSH4 0x8A9CFD55 EQ PUSH2 0x176 JUMPI DUP1 PUSH4 0xD7BB99BA EQ PUSH2 0x19E JUMPI DUP1 PUSH4 0xD7D1BBDB EQ PUSH2 0x1A8 JUMPI PUSH2 0x7A JUMP JUMPDEST DUP1 PUSH4 0x3441006 EQ PUSH2 0x7E JUMPI DUP1 PUSH4 0xA144391 EQ PUSH2 0xA6 JUMPI DUP1 PUSH4 0x481C6A75 EQ PUSH2 0xE2 JUMPI DUP1 PUSH4 0x81D12C58 EQ PUSH2 0x10C JUMPI JUMPDEST PUSH0 DUP1 REVERT JUMPDEST CALLVALUE DUP1 ISZERO PUSH2 0x89 JUMPI PUSH0 DUP1 REVERT JUMPDEST POP PUSH2 0xA4 PUSH1 0x4 DUP1 CALLDATASIZE SUB DUP2 ADD SWAP1 PUSH2 0x9F SWAP2 SWAP1 PUSH2 0x79A JUMP JUMPDEST PUSH2 0x1D0 JUMP JUMPDEST STOP JUMPDEST CALLVALUE DUP1 ISZERO PUSH2 0xB1 JUMPI PUSH0 DUP1 REVERT JUMPDEST POP PUSH2 0xCC PUSH1 0x4 DUP1 CALLDATASIZE SUB DUP2 ADD SWAP1 PUSH2 0xC7 SWAP2 SWAP1 PUSH2 0x81F JUMP JUMPDEST PUSH2 0x30C JUMP JUMPDEST PUSH1 0x40 MLOAD PUSH2 0xD9 SWAP2 SWAP1 PUSH2 0x864 JUMP JUMPDEST PUSH1 0x40 MLOAD DUP1 SWAP2 SUB SWAP1 RETURN JUMPDEST CALLVALUE DUP1 ISZERO PUSH2 0xED JUMPI PUSH0 DUP1 REVERT JUMPDEST POP PUSH2 0xF6 PUSH2 0x329 JUMP JUMPDEST PUSH1 0x40 MLOAD PUSH2 0x103 SWAP2 SWAP1 PUSH2 0x88C JUMP JUMPDEST PUSH1 0x40 MLOAD DUP1 SWAP2 SUB SWAP1 RETURN JUMPDEST CALLVALUE DUP1 ISZERO PUSH2 0x117 JUMPI PUSH0 DUP1 REVERT JUMPDEST POP PUSH2 0x132 PUSH1 0x4 DUP1 CALLDATASIZE SUB DUP2 ADD SWAP1 PUSH2 0x12D SWAP2 SWAP1 PUSH2 0x79A JUMP JUMPDEST PUSH2 0x34C JUMP JUMPDEST PUSH1 0x40 MLOAD PUSH2 0x143 SWAP6 SWAP5 SWAP4 SWAP3 SWAP2 SWAP1 PUSH2 0x93E JUMP JUMPDEST PUSH1 0x40 MLOAD DUP1 SWAP2 SUB SWAP1 RETURN JUMPDEST CALLVALUE DUP1 ISZERO PUSH2 0x157 JUMPI PUSH0 DUP1 REVERT JUMPDEST POP PUSH2 0x160 PUSH2 0x43F JUMP JUMPDEST PUSH1 0x40 MLOAD PUSH2 0x16D SWAP2 SWAP1 PUSH2 0x996 JUMP JUMPDEST PUSH1 0x40 MLOAD DUP1 SWAP2 SUB SWAP1 RETURN JUMPDEST CALLVALUE DUP1 ISZERO PUSH2 0x181 JUMPI PUSH0 DUP1 REVERT JUMPDEST POP PUSH2 0x19C PUSH1 0x4 DUP1 CALLDATASIZE SUB DUP2 ADD SWAP1 PUSH2 0x197 SWAP2 SWAP1 PUSH2 0xA10 JUMP JUMPDEST PUSH2 0x445 JUMP JUMPDEST STOP JUMPDEST PUSH2 0x1A6 PUSH2 0x56E JUMP JUMPDEST STOP JUMPDEST CALLVALUE DUP1 ISZERO PUSH2 0x1B3 JUMPI PUSH0 DUP1 REVERT JUMPDEST POP PUSH2 0x1CE PUSH1 0x4 DUP1 CALLDATASIZE SUB DUP2 ADD SWAP1 PUSH2 0x1C9 SWAP2 SWAP1 PUSH2 0x79A JUMP JUMPDEST PUSH2 0x5E8 JUMP JUMPDEST STOP JUMPDEST PUSH0 DUP1 SLOAD SWAP1 PUSH2 0x100 EXP SWAP1 DIV PUSH20 0xFFFFFFFFFFFFFFFFFFFFFFFFFFFFFFFFFFFFFFFF AND PUSH20 0xFFFFFFFFFFFFFFFFFFFFFFFFFFFFFFFFFFFFFFFF AND CALLER PUSH20 0xFFFFFFFFFFFFFFFFFFFFFFFFFFFFFFFFFFFFFFFF AND EQ PUSH2 0x226 JUMPI PUSH0 DUP1 REVERT JUMPDEST PUSH0 PUSH1 0x4 DUP3 DUP2 SLOAD DUP2 LT PUSH2 0x23B JUMPI PUSH2 0x23A PUSH2 0xA81 JUMP JUMPDEST JUMPDEST SWAP1 PUSH0 MSTORE PUSH1 0x20 PUSH0 KECCAK256 SWAP1 PUSH1 0x5 MUL ADD SWAP1 POP DUP1 PUSH1 0x2 ADD PUSH1 0x14 SWAP1 SLOAD SWAP1 PUSH2 0x100 EXP SWAP1 DIV PUSH1 0xFF AND ISZERO PUSH2 0x264 JUMPI PUSH0 DUP1 REVERT JUMPDEST PUSH1 0x2 DUP1 SLOAD PUSH2 0x272 SWAP2 SWAP1 PUSH2 0xB08 JUMP JUMPDEST DUP2 PUSH1 0x4 ADD SLOAD GT PUSH2 0x280 JUMPI PUSH0 DUP1 REVERT JUMPDEST PUSH1 0x1 DUP2 PUSH1 0x2 ADD PUSH1 0x14 PUSH2 0x100 EXP DUP2 SLOAD DUP2 PUSH1 0xFF MUL NOT AND SWAP1 DUP4 ISZERO ISZERO MUL OR SWAP1 SSTORE POP DUP1 PUSH1 0x2 ADD PUSH0 SWAP1 SLOAD SWAP1 PUSH2 0x100 EXP SWAP1 DIV PUSH20 0xFFFFFFFFFFFFFFFFFFFFFFFFFFFFFFFFFFFFFFFF AND PUSH20 0xFFFFFFFFFFFFFFFFFFFFFFFFFFFFFFFFFFFFFFFF AND PUSH2 0x8FC DUP3 PUSH1 0x1 ADD SLOAD SWAP1 DUP2 ISZERO MUL SWAP1 PUSH1 0x40 MLOAD PUSH0 PUSH1 0x40 MLOAD DUP1 DUP4 SUB DUP2 DUP6 DUP9 DUP9 CALL SWAP4 POP POP POP POP ISZERO DUP1 ISZERO PUSH2 0x307 JUMPI RETURNDATASIZE PUSH0 DUP1 RETURNDATACOPY RETURNDATASIZE PUSH0 REVERT JUMPDEST POP POP POP JUMP JUMPDEST PUSH1 0x1 PUSH1 0x20 MSTORE DUP1 PUSH0 MSTORE PUSH1 0x40 PUSH0 KECCAK256 PUSH0 SWAP2 POP SLOAD SWAP1 PUSH2 0x100 EXP SWAP1 DIV PUSH1 0xFF AND DUP2 JUMP JUMPDEST PUSH0 DUP1 SLOAD SWAP1 PUSH2 0x100 EXP SWAP1 DIV PUSH20 0xFFFFFFFFFFFFFFFFFFFFFFFFFFFFFFFFFFFFFFFF AND DUP2 JUMP JUMPDEST PUSH1 0x4 DUP2 DUP2 SLOAD DUP2 LT PUSH2 0x35B JUMPI PUSH0 DUP1 REVERT JUMPDEST SWAP1 PUSH0 MSTORE PUSH1 0x20 PUSH0 KECCAK256 SWAP1 PUSH1 0x5 MUL ADD PUSH0 SWAP2 POP SWAP1 POP DUP1 PUSH0 ADD DUP1 SLOAD PUSH2 0x37A SWAP1 PUSH2 0xB65 JUMP JUMPDEST DUP1 PUSH1 0x1F ADD PUSH1 0x20 DUP1 SWAP2 DIV MUL PUSH1 0x20 ADD PUSH1 0x40 MLOAD SWAP1 DUP2 ADD PUSH1 0x40 MSTORE DUP1 SWAP3 SWAP2 SWAP1 DUP2 DUP2 MSTORE PUSH1 0x20 ADD DUP3 DUP1 SLOAD PUSH2 0x3A6 SWAP1 PUSH2 0xB65 JUMP JUMPDEST DUP1 ISZERO PUSH2 0x3F1 JUMPI DUP1 PUSH1 0x1F LT PUSH2 0x3C8 JUMPI PUSH2 0x100 DUP1 DUP4 SLOAD DIV MUL DUP4 MSTORE SWAP2 PUSH1 0x20 ADD SWAP2 PUSH2 0x3F1 JUMP JUMPDEST DUP3 ADD SWAP2 SWAP1 PUSH0 MSTORE PUSH1 0x20 PUSH0 KECCAK256 SWAP1 JUMPDEST DUP2 SLOAD DUP2 MSTORE SWAP1 PUSH1 0x1 ADD SWAP1 PUSH1 0x20 ADD DUP1 DUP4 GT PUSH2 0x3D4 JUMPI DUP3 SWAP1 SUB PUSH1 0x1F AND DUP3 ADD SWAP2 JUMPDEST POP POP POP POP POP SWAP1 DUP1 PUSH1 0x1 ADD SLOAD SWAP1 DUP1 PUSH1 0x2 ADD PUSH0 SWAP1 SLOAD SWAP1 PUSH2 0x100 EXP SWAP1 DIV PUSH20 0xFFFFFFFFFFFFFFFFFFFFFFFFFFFFFFFFFFFFFFFF AND SWAP1 DUP1 PUSH1 0x2 ADD PUSH1 0x14 SWAP1 SLOAD SWAP1 PUSH2 0x100 EXP SWAP1 DIV PUSH1 0xFF AND SWAP1 DUP1 PUSH1 0x4 ADD SLOAD SWAP1 POP DUP6 JUMP JUMPDEST PUSH1 0x2 SLOAD DUP2 JUMP JUMPDEST PUSH0 DUP1 SLOAD SWAP1 PUSH2 0x100 EXP SWAP1 DIV PUSH20 0xFFFFFFFFFFFFFFFFFFFFFFFFFFFFFFFFFFFFFFFF AND PUSH20 0xFFFFFFFFFFFFFFFFFFFFFFFFFFFFFFFFFFFFFFFF AND CALLER PUSH20 0xFFFFFFFFFFFFFFFFFFFFFFFFFFFFFFFFFFFFFFFF AND EQ PUSH2 0x49B JUMPI PUSH0 DUP1 REVERT JUMPDEST PUSH0 PUSH1 0x4 DUP1 SLOAD SWAP1 POP SWAP1 POP PUSH1 0x4 PUSH1 0x1 DUP2 PUSH1 0x1 DUP2 SLOAD ADD DUP1 DUP3 SSTORE DUP1 SWAP2 POP POP SUB SWAP1 PUSH0 MSTORE PUSH1 0x20 PUSH0 KECCAK256 SWAP1 POP POP PUSH0 PUSH1 0x4 DUP3 DUP2 SLOAD DUP2 LT PUSH2 0x4D5 JUMPI PUSH2 0x4D4 PUSH2 0xA81 JUMP JUMPDEST JUMPDEST SWAP1 PUSH0 MSTORE PUSH1 0x20 PUSH0 KECCAK256 SWAP1 PUSH1 0x5 MUL ADD SWAP1 POP DUP6 DUP6 DUP3 PUSH0 ADD SWAP2 DUP3 PUSH2 0x4F5 SWAP3 SWAP2 SWAP1 PUSH2 0xD69 JUMP JUMPDEST POP DUP4 DUP2 PUSH1 0x1 ADD DUP2 SWAP1 SSTORE POP DUP3 DUP2 PUSH1 0x2 ADD PUSH0 PUSH2 0x100 EXP DUP2 SLOAD DUP2 PUSH20 0xFFFFFFFFFFFFFFFFFFFFFFFFFFFFFFFFFFFFFFFF MUL NOT AND SWAP1 DUP4 PUSH20 0xFFFFFFFFFFFFFFFFFFFFFFFFFFFFFFFFFFFFFFFF AND MUL OR SWAP1 SSTORE POP PUSH0 DUP2 PUSH1 0x2 ADD PUSH1 0x14 PUSH2 0x100 EXP DUP2 SLOAD DUP2 PUSH1 0xFF MUL NOT AND SWAP1 DUP4 ISZERO ISZERO MUL OR SWAP1 SSTORE POP PUSH0 DUP2 PUSH1 0x4 ADD DUP2 SWAP1 SSTORE POP POP POP POP POP POP POP JUMP JUMPDEST PUSH1 0x3 SLOAD CALLVALUE GT PUSH2 0x57B JUMPI PUSH0 DUP1 REVERT JUMPDEST PUSH1 0x1 DUP1 PUSH0 CALLER PUSH20 0xFFFFFFFFFFFFFFFFFFFFFFFFFFFFFFFFFFFFFFFF AND PUSH20 0xFFFFFFFFFFFFFFFFFFFFFFFFFFFFFFFFFFFFFFFF AND DUP2 MSTORE PUSH1 0x20 ADD SWAP1 DUP2 MSTORE PUSH1 0x20 ADD PUSH0 KECCAK256 PUSH0 PUSH2 0x100 EXP DUP2 SLOAD DUP2 PUSH1 0xFF MUL NOT AND SWAP1 DUP4 ISZERO ISZERO MUL OR SWAP1 SSTORE POP PUSH1 0x2 PUSH0 DUP2 SLOAD DUP1 SWAP3 SWAP2 SWAP1 PUSH2 0x5E1 SWAP1 PUSH2 0xE36 JUMP JUMPDEST SWAP2 SWAP1 POP SSTORE POP JUMP JUMPDEST PUSH1 0x1 PUSH0 CALLER PUSH20 0xFFFFFFFFFFFFFFFFFFFFFFFFFFFFFFFFFFFFFFFF AND PUSH20 0xFFFFFFFFFFFFFFFFFFFFFFFFFFFFFFFFFFFFFFFF AND DUP2 MSTORE PUSH1 0x20 ADD SWAP1 DUP2 MSTORE PUSH1 0x20 ADD PUSH0 KECCAK256 PUSH0 SWAP1 SLOAD SWAP1 PUSH2 0x100 EXP SWAP1 DIV PUSH1 0xFF AND PUSH2 0x63A JUMPI PUSH0 DUP1 REVERT JUMPDEST PUSH1 0x4 DUP2 DUP2 SLOAD DUP2 LT PUSH2 0x64E JUMPI PUSH2 0x64D PUSH2 0xA81 JUMP JUMPDEST JUMPDEST SWAP1 PUSH0 MSTORE PUSH1 0x20 PUSH0 KECCAK256 SWAP1 PUSH1 0x5 MUL ADD PUSH1 0x3 ADD PUSH0 CALLER PUSH20 0xFFFFFFFFFFFFFFFFFFFFFFFFFFFFFFFFFFFFFFFF AND PUSH20 0xFFFFFFFFFFFFFFFFFFFFFFFFFFFFFFFFFFFFFFFF AND DUP2 MSTORE PUSH1 0x20 ADD SWAP1 DUP2 MSTORE PUSH1 0x20 ADD PUSH0 KECCAK256 PUSH0 SWAP1 SLOAD SWAP1 PUSH2 0x100 EXP SWAP1 DIV PUSH1 0xFF AND ISZERO PUSH2 0x6AE JUMPI PUSH0 DUP1 REVERT JUMPDEST PUSH1 0x1 PUSH1 0x4 DUP3 DUP2 SLOAD DUP2 LT PUSH2 0x6C4 JUMPI PUSH2 0x6C3 PUSH2 0xA81 JUMP JUMPDEST JUMPDEST SWAP1 PUSH0 MSTORE PUSH1 0x20 PUSH0 KECCAK256 SWAP1 PUSH1 0x5 MUL ADD PUSH1 0x3 ADD PUSH0 CALLER PUSH20 0xFFFFFFFFFFFFFFFFFFFFFFFFFFFFFFFFFFFFFFFF AND PUSH20 0xFFFFFFFFFFFFFFFFFFFFFFFFFFFFFFFFFFFFFFFF AND DUP2 MSTORE PUSH1 0x20 ADD SWAP1 DUP2 MSTORE PUSH1 0x20 ADD PUSH0 KECCAK256 PUSH0 PUSH2 0x100 EXP DUP2 SLOAD DUP2 PUSH1 0xFF MUL NOT AND SWAP1 DUP4 ISZERO ISZERO MUL OR SWAP1 SSTORE POP PUSH1 0x4 DUP2 DUP2 SLOAD DUP2 LT PUSH2 0x738 JUMPI PUSH2 0x737 PUSH2 0xA81 JUMP JUMPDEST JUMPDEST SWAP1 PUSH0 MSTORE PUSH1 0x20 PUSH0 KECCAK256 SWAP1 PUSH1 0x5 MUL ADD PUSH1 0x4 ADD PUSH0 DUP2 SLOAD DUP1 SWAP3 SWAP2 SWAP1 PUSH2 0x757 SWAP1 PUSH2 0xE36 JUMP JUMPDEST SWAP2 SWAP1 POP SSTORE POP POP JUMP JUMPDEST PUSH0 DUP1 REVERT JUMPDEST PUSH0 DUP1 REVERT JUMPDEST PUSH0 DUP2 SWAP1 POP SWAP2 SWAP1 POP JUMP JUMPDEST PUSH2 0x779 DUP2 PUSH2 0x767 JUMP JUMPDEST DUP2 EQ PUSH2 0x783 JUMPI PUSH0 DUP1 REVERT JUMPDEST POP JUMP JUMPDEST PUSH0 DUP2 CALLDATALOAD SWAP1 POP PUSH2 0x794 DUP2 PUSH2 0x770 JUMP JUMPDEST SWAP3 SWAP2 POP POP JUMP JUMPDEST PUSH0 PUSH1 0x20 DUP3 DUP5 SUB SLT ISZERO PUSH2 0x7AF JUMPI PUSH2 0x7AE PUSH2 0x75F JUMP JUMPDEST JUMPDEST PUSH0 PUSH2 0x7BC DUP5 DUP3 DUP6 ADD PUSH2 0x786 JUMP JUMPDEST SWAP2 POP POP SWAP3 SWAP2 POP POP JUMP JUMPDEST PUSH0 PUSH20 0xFFFFFFFFFFFFFFFFFFFFFFFFFFFFFFFFFFFFFFFF DUP3 AND SWAP1 POP SWAP2 SWAP1 POP JUMP JUMPDEST PUSH0 PUSH2 0x7EE DUP3 PUSH2 0x7C5 JUMP JUMPDEST SWAP1 POP SWAP2 SWAP1 POP JUMP JUMPDEST PUSH2 0x7FE DUP2 PUSH2 0x7E4 JUMP JUMPDEST DUP2 EQ PUSH2 0x808 JUMPI PUSH0 DUP1 REVERT JUMPDEST POP JUMP JUMPDEST PUSH0 DUP2 CALLDATALOAD SWAP1 POP PUSH2 0x819 DUP2 PUSH2 0x7F5 JUMP JUMPDEST SWAP3 SWAP2 POP POP JUMP JUMPDEST PUSH0 PUSH1 0x20 DUP3 DUP5 SUB SLT ISZERO PUSH2 0x834 JUMPI PUSH2 0x833 PUSH2 0x75F JUMP JUMPDEST JUMPDEST PUSH0 PUSH2 0x841 DUP5 DUP3 DUP6 ADD PUSH2 0x80B JUMP JUMPDEST SWAP2 POP POP SWAP3 SWAP2 POP POP JUMP JUMPDEST PUSH0 DUP2 ISZERO ISZERO SWAP1 POP SWAP2 SWAP1 POP JUMP JUMPDEST PUSH2 0x85E DUP2 PUSH2 0x84A JUMP JUMPDEST DUP3 MSTORE POP POP JUMP JUMPDEST PUSH0 PUSH1 0x20 DUP3 ADD SWAP1 POP PUSH2 0x877 PUSH0 DUP4 ADD DUP5 PUSH2 0x855 JUMP JUMPDEST SWAP3 SWAP2 POP POP JUMP JUMPDEST PUSH2 0x886 DUP2 PUSH2 0x7E4 JUMP JUMPDEST DUP3 MSTORE POP POP JUMP JUMPDEST PUSH0 PUSH1 0x20 DUP3 ADD SWAP1 POP PUSH2 0x89F PUSH0 DUP4 ADD DUP5 PUSH2 0x87D JUMP JUMPDEST SWAP3 SWAP2 POP POP JUMP JUMPDEST PUSH0 DUP2 MLOAD SWAP1 POP SWAP2 SWAP1 POP JUMP JUMPDEST PUSH0 DUP3 DUP3 MSTORE PUSH1 0x20 DUP3 ADD SWAP1 POP SWAP3 SWAP2 POP POP JUMP JUMPDEST PUSH0 JUMPDEST DUP4 DUP2 LT ISZERO PUSH2 0x8DC JUMPI DUP1 DUP3 ADD MLOAD DUP2 DUP5 ADD MSTORE PUSH1 0x20 DUP2 ADD SWAP1 POP PUSH2 0x8C1 JUMP JUMPDEST PUSH0 DUP5 DUP5 ADD MSTORE POP POP POP POP JUMP JUMPDEST PUSH0 PUSH1 0x1F NOT PUSH1 0x1F DUP4 ADD AND SWAP1 POP SWAP2 SWAP1 POP JUMP JUMPDEST PUSH0 PUSH2 0x901 DUP3 PUSH2 0x8A5 JUMP JUMPDEST PUSH2 0x90B DUP2 DUP6 PUSH2 0x8AF JUMP JUMPDEST SWAP4 POP PUSH2 0x91B DUP2 DUP6 PUSH1 0x20 DUP7 ADD PUSH2 0x8BF JUMP JUMPDEST PUSH2 0x924 DUP2 PUSH2 0x8E7 JUMP JUMPDEST DUP5 ADD SWAP2 POP POP SWAP3 SWAP2 POP POP JUMP JUMPDEST PUSH2 0x938 DUP2 PUSH2 0x767 JUMP JUMPDEST DUP3 MSTORE POP POP JUMP JUMPDEST PUSH0 PUSH1 0xA0 DUP3 ADD SWAP1 POP DUP2 DUP2 SUB PUSH0 DUP4 ADD MSTORE PUSH2 0x956 DUP2 DUP9 PUSH2 0x8F7 JUMP JUMPDEST SWAP1 POP PUSH2 0x965 PUSH1 0x20 DUP4 ADD DUP8 PUSH2 0x92F JUMP JUMPDEST PUSH2 0x972 PUSH1 0x40 DUP4 ADD DUP7 PUSH2 0x87D JUMP JUMPDEST PUSH2 0x97F PUSH1 0x60 DUP4 ADD DUP6 PUSH2 0x855 JUMP JUMPDEST PUSH2 0x98C PUSH1 0x80 DUP4 ADD DUP5 PUSH2 0x92F JUMP JUMPDEST SWAP7 SWAP6 POP POP POP POP POP POP JUMP JUMPDEST PUSH0 PUSH1 0x20 DUP3 ADD SWAP1 POP PUSH2 0x9A9 PUSH0 DUP4 ADD DUP5 PUSH2 0x92F JUMP JUMPDEST SWAP3 SWAP2 POP POP JUMP JUMPDEST PUSH0 DUP1 REVERT JUMPDEST PUSH0 DUP1 REVERT JUMPDEST PUSH0 DUP1 REVERT JUMPDEST PUSH0 DUP1 DUP4 PUSH1 0x1F DUP5 ADD SLT PUSH2 0x9D0 JUMPI PUSH2 0x9CF PUSH2 0x9AF JUMP JUMPDEST JUMPDEST DUP3 CALLDATALOAD SWAP1 POP PUSH8 0xFFFFFFFFFFFFFFFF DUP2 GT ISZERO PUSH2 0x9ED JUMPI PUSH2 0x9EC PUSH2 0x9B3 JUMP JUMPDEST JUMPDEST PUSH1 0x20 DUP4 ADD SWAP2 POP DUP4 PUSH1 0x1 DUP3 MUL DUP4 ADD GT ISZERO PUSH2 0xA09 JUMPI PUSH2 0xA08 PUSH2 0x9B7 JUMP JUMPDEST JUMPDEST SWAP3 POP SWAP3 SWAP1 POP JUMP JUMPDEST PUSH0 DUP1 PUSH0 DUP1 PUSH1 0x60 DUP6 DUP8 SUB SLT ISZERO PUSH2 0xA28 JUMPI PUSH2 0xA27 PUSH2 0x75F JUMP JUMPDEST JUMPDEST PUSH0 DUP6 ADD CALLDATALOAD PUSH8 0xFFFFFFFFFFFFFFFF DUP2 GT ISZERO PUSH2 0xA45 JUMPI PUSH2 0xA44 PUSH2 0x763 JUMP JUMPDEST JUMPDEST PUSH2 0xA51 DUP8 DUP3 DUP9 ADD PUSH2 0x9BB JUMP JUMPDEST SWAP5 POP SWAP5 POP POP PUSH1 0x20 PUSH2 0xA64 DUP8 DUP3 DUP9 ADD PUSH2 0x786 JUMP JUMPDEST SWAP3 POP POP PUSH1 0x40 PUSH2 0xA75 DUP8 DUP3 DUP9 ADD PUSH2 0x80B JUMP JUMPDEST SWAP2 POP POP SWAP3 SWAP6 SWAP2 SWAP5 POP SWAP3 POP JUMP JUMPDEST PUSH32 0x4E487B7100000000000000000000000000000000000000000000000000000000 PUSH0 MSTORE PUSH1 0x32 PUSH1 0x4 MSTORE PUSH1 0x24 PUSH0 REVERT JUMPDEST PUSH32 0x4E487B7100000000000000000000000000000000000000000000000000000000 PUSH0 MSTORE PUSH1 0x12 PUSH1 0x4 MSTORE PUSH1 0x24 PUSH0 REVERT JUMPDEST PUSH32 0x4E487B7100000000000000000000000000000000000000000000000000000000 PUSH0 MSTORE PUSH1 0x11 PUSH1 0x4 MSTORE PUSH1 0x24 PUSH0 REVERT JUMPDEST PUSH0 PUSH2 0xB12 DUP3 PUSH2 0x767 JUMP JUMPDEST SWAP2 POP PUSH2 0xB1D DUP4 PUSH2 0x767 JUMP JUMPDEST SWAP3 POP DUP3 PUSH2 0xB2D JUMPI PUSH2 0xB2C PUSH2 0xAAE JUMP JUMPDEST JUMPDEST DUP3 DUP3 DIV SWAP1 POP SWAP3 SWAP2 POP POP JUMP JUMPDEST PUSH32 0x4E487B7100000000000000000000000000000000000000000000000000000000 PUSH0 MSTORE PUSH1 0x22 PUSH1 0x4 MSTORE PUSH1 0x24 PUSH0 REVERT JUMPDEST PUSH0 PUSH1 0x2 DUP3 DIV SWAP1 POP PUSH1 0x1 DUP3 AND DUP1 PUSH2 0xB7C JUMPI PUSH1 0x7F DUP3 AND SWAP2 POP JUMPDEST PUSH1 0x20 DUP3 LT DUP2 SUB PUSH2 0xB8F JUMPI PUSH2 0xB8E PUSH2 0xB38 JUMP JUMPDEST JUMPDEST POP SWAP2 SWAP1 POP JUMP JUMPDEST PUSH0 DUP3 SWAP1 POP SWAP3 SWAP2 POP POP JUMP JUMPDEST PUSH32 0x4E487B7100000000000000000000000000000000000000000000000000000000 PUSH0 MSTORE PUSH1 0x41 PUSH1 0x4 MSTORE PUSH1 0x24 PUSH0 REVERT JUMPDEST PUSH0 DUP2 SWAP1 POP DUP2 PUSH0 MSTORE PUSH1 0x20 PUSH0 KECCAK256 SWAP1 POP SWAP2 SWAP1 POP JUMP JUMPDEST PUSH0 PUSH1 0x20 PUSH1 0x1F DUP4 ADD DIV SWAP1 POP SWAP2 SWAP1 POP JUMP JUMPDEST PUSH0 DUP3 DUP3 SHL SWAP1 POP SWAP3 SWAP2 POP POP JUMP JUMPDEST PUSH0 PUSH1 0x8 DUP4 MUL PUSH2 0xC28 PUSH32 0xFFFFFFFFFFFFFFFFFFFFFFFFFFFFFFFFFFFFFFFFFFFFFFFFFFFFFFFFFFFFFFFF DUP3 PUSH2 0xBED JUMP JUMPDEST PUSH2 0xC32 DUP7 DUP4 PUSH2 0xBED JUMP JUMPDEST SWAP6 POP DUP1 NOT DUP5 AND SWAP4 POP DUP1 DUP7 AND DUP5 OR SWAP3 POP POP POP SWAP4 SWAP3 POP POP POP JUMP JUMPDEST PUSH0 DUP2 SWAP1 POP SWAP2 SWAP1 POP JUMP JUMPDEST PUSH0 PUSH2 0xC6D PUSH2 0xC68 PUSH2 0xC63 DUP5 PUSH2 0x767 JUMP JUMPDEST PUSH2 0xC4A JUMP JUMPDEST PUSH2 0x767 JUMP JUMPDEST SWAP1 POP SWAP2 SWAP1 POP JUMP JUMPDEST PUSH0 DUP2 SWAP1 POP SWAP2 SWAP1 POP JUMP JUMPDEST PUSH2 0xC86 DUP4 PUSH2 0xC53 JUMP JUMPDEST PUSH2 0xC9A PUSH2 0xC92 DUP3 PUSH2 0xC74 JUMP JUMPDEST DUP5 DUP5 SLOAD PUSH2 0xBF9 JUMP JUMPDEST DUP3 SSTORE POP POP POP POP JUMP JUMPDEST PUSH0 SWAP1 JUMP JUMPDEST PUSH2 0xCAE PUSH2 0xCA2 JUMP JUMPDEST PUSH2 0xCB9 DUP2 DUP5 DUP5 PUSH2 0xC7D JUMP JUMPDEST POP POP POP JUMP JUMPDEST JUMPDEST DUP2 DUP2 LT ISZERO PUSH2 0xCDC JUMPI PUSH2 0xCD1 PUSH0 DUP3 PUSH2 0xCA6 JUMP JUMPDEST PUSH1 0x1 DUP2 ADD SWAP1 POP PUSH2 0xCBF JUMP JUMPDEST POP POP JUMP JUMPDEST PUSH1 0x1F DUP3 GT ISZERO PUSH2 0xD21 JUMPI PUSH2 0xCF2 DUP2 PUSH2 0xBCC JUMP JUMPDEST PUSH2 0xCFB DUP5 PUSH2 0xBDE JUMP JUMPDEST DUP2 ADD PUSH1 0x20 DUP6 LT ISZERO PUSH2 0xD0A JUMPI DUP2 SWAP1 POP JUMPDEST PUSH2 0xD1E PUSH2 0xD16 DUP6 PUSH2 0xBDE JUMP JUMPDEST DUP4 ADD DUP3 PUSH2 0xCBE JUMP JUMPDEST POP POP JUMPDEST POP POP POP JUMP JUMPDEST PUSH0 DUP3 DUP3 SHR SWAP1 POP SWAP3 SWAP2 POP POP JUMP JUMPDEST PUSH0 PUSH2 0xD41 PUSH0 NOT DUP5 PUSH1 0x8 MUL PUSH2 0xD26 JUMP JUMPDEST NOT DUP1 DUP4 AND SWAP2 POP POP SWAP3 SWAP2 POP POP JUMP JUMPDEST PUSH0 PUSH2 0xD59 DUP4 DUP4 PUSH2 0xD32 JUMP JUMPDEST SWAP2 POP DUP3 PUSH1 0x2 MUL DUP3 OR SWAP1 POP SWAP3 SWAP2 POP POP JUMP JUMPDEST PUSH2 0xD73 DUP4 DUP4 PUSH2 0xB95 JUMP JUMPDEST PUSH8 0xFFFFFFFFFFFFFFFF DUP2 GT ISZERO PUSH2 0xD8C JUMPI PUSH2 0xD8B PUSH2 0xB9F JUMP JUMPDEST JUMPDEST PUSH2 0xD96 DUP3 SLOAD PUSH2 0xB65 JUMP JUMPDEST PUSH2 0xDA1 DUP3 DUP3 DUP6 PUSH2 0xCE0 JUMP JUMPDEST PUSH0 PUSH1 0x1F DUP4 GT PUSH1 0x1 DUP2 EQ PUSH2 0xDCE JUMPI PUSH0 DUP5 ISZERO PUSH2 0xDBC JUMPI DUP3 DUP8 ADD CALLDATALOAD SWAP1 POP JUMPDEST PUSH2 0xDC6 DUP6 DUP3 PUSH2 0xD4E JUMP JUMPDEST DUP7 SSTORE POP PUSH2 0xE2D JUMP JUMPDEST PUSH1 0x1F NOT DUP5 AND PUSH2 0xDDC DUP7 PUSH2 0xBCC JUMP JUMPDEST PUSH0 JUMPDEST DUP3 DUP2 LT ISZERO PUSH2 0xE03 JUMPI DUP5 DUP10 ADD CALLDATALOAD DUP3 SSTORE PUSH1 0x1 DUP3 ADD SWAP2 POP PUSH1 0x20 DUP6 ADD SWAP5 POP PUSH1 0x20 DUP2 ADD SWAP1 POP PUSH2 0xDDE JUMP JUMPDEST DUP7 DUP4 LT ISZERO PUSH2 0xE20 JUMPI DUP5 DUP10 ADD CALLDATALOAD PUSH2 0xE1C PUSH1 0x1F DUP10 AND DUP3 PUSH2 0xD32 JUMP JUMPDEST DUP4 SSTORE POP JUMPDEST PUSH1 0x1 PUSH1 0x2 DUP9 MUL ADD DUP9 SSTORE POP POP POP JUMPDEST POP POP POP POP POP POP POP JUMP JUMPDEST PUSH0 PUSH2 0xE40 DUP3 PUSH2 0x767 JUMP JUMPDEST SWAP2 POP PUSH32 0xFFFFFFFFFFFFFFFFFFFFFFFFFFFFFFFFFFFFFFFFFFFFFFFFFFFFFFFFFFFFFFFF DUP3 SUB PUSH2 0xE72 JUMPI PUSH2 0xE71 PUSH2 0xADB JUMP JUMPDEST JUMPDEST PUSH1 0x1 DUP3 ADD SWAP1 POP SWAP2 SWAP1 POP JUMP INVALID LOG2 PUSH5 0x6970667358 0x22 SLT KECCAK256 LOG2 LOG4 SWAP13 0x1F SWAP9 0xF 0xF6 SDIV SWAP6 0xC2 LOG2 0x28 0xB5 0xF7 0x26 PUSH20 0xF0ACB1910B0DDA1F888F531C597B706464736F6C PUSH4 0x43000816 STOP CALLER "},"gasEstimates":{"creation":{"codeDepositCost":"752600","executionCost":"infinite","totalCost":"infinite"},"external":{"approveRequest(uint256)":"infinite","approvers(address)":"2856","approversCount()":"2425","contribute()":"50992","createRequest(string,uint256,address)":"infinite","finalizeRequest(uint256)":"infinite","manager()":"2550","requests(uint256)":"infinite"}},"methodIdentifiers":{"approveRequest(uint256)":"d7d1bbdb","approvers(address)":"0a144391","approversCount()":"82fde093","contribute()":"d7bb99ba","createRequest(string,uint256,address)":"8a9cfd55","finalizeRequest(uint256)":"03441006","manager()":"481c6a75","requests(uint256)":"81d12c58"}},"storageLayout":{"storage":[{"astId":61,"contract":"Campaign.sol:Campaign","label":"manager","offset":0,"slot":"0","type":"t_address"},{"astId":65,"contract":"Campaign.sol:Campaign","label":"approvers","offset":0,"slot":"1","type":"t_mapping(t_address,t_bool)"},{"astId":67,"contract":"Campaign.sol:Campaign","label":"approversCount","offset":0,"slot":"2","type":"t_uint256"},{"astId":69,"contract":"Campaign.sol:Campaign","label":"minimumContributionInEth","offset":0,"slot":"3","type":"t_uint256"},{"astId":73,"contract":"Campaign.sol:Campaign","label":"requests","offset":0,"slot":"4","type":"t_array(t_struct(Request)59_storage)dyn_storage"}],"types":{"t_address":{"encoding":"inplace","label":"address","numberOfBytes":"20"},"t_array(t_struct(Request)59_storage)dyn_storage":{"base":"t_struct(Request)59_storage","encoding":"dynamic_array","label":"struct Campaign.Request[]","numberOfBytes":"32"},"t_bool":{"encoding":"inplace","label":"bool","numberOfBytes":"1"},"t_mapping(t_address,t_bool)":{"encoding":"mapping","key":"t_address","label":"mapping(address => bool)","numberOfBytes":"32","value":"t_bool"},"t_string_storage":{"encoding":"bytes","label":"string","numberOfBytes":"32"},"t_struct(Request)59_storage":{"encoding":"inplace","label":"struct Campaign.Request","members":[{"astId":46,"contract":"Campaign.sol:Campaign","label":"description","offset":0,"slot":"0","type":"t_string_storage"},{"astId":48,"contract":"Campaign.sol:Campaign","label":"amount","offset":0,"slot":"1","type":"t_uint256"},{"astId":50,"contract":"Campaign.sol:Campaign","label":"recipient","offset":0,"slot":"2","type":"t_address"},{"astId":52,"contract":"Campaign.sol:Campaign","label":"completed","offset":20,"slot":"2","type":"t_bool"},{"astId":56,"contract":"Campaign.sol:Campaign","label":"approvals","offset":0,"slot":"3","type":"t_mapping(t_address,t_bool)"},{"astId":58,"contract":"Campaign.sol:Campaign","label":"approvalCount","offset":0,"slot":"4","type":"t_uint256"}],"numberOfBytes":"160"},"t_uint256":{"encoding":"inplace","label":"uint256","numberOfBytes":"32"}}},"userdoc":{"kind":"user","methods":{},"version":1}}