{
    "contractName": "Lottery",
    "abi": [
        {
            "inputs": [],
            "stateMutability": "nonpayable",
            "type": "constructor"
        },
        {
            "inputs": [],
            "name": "enter",
            "outputs": [],
            "stateMutability": "payable",
            "type": "function"
        },
        {
            "inputs": [],
            "name": "getPlayers",
            "outputs": [
                {
                    "internalType": "address[]",
                    "name": "",
                    "type": "address[]"
                }
            ],
            "stateMutability": "view",
            "type": "function"
        },
        {
            "inputs": [],
            "name": "manager",
            "outputs": [
                {
                    "internalType": "address",
                    "name": "",
                    "type": "address"
                }
            ],
            "stateMutability": "view",
            "type": "function"
        },
        {
            "inputs": [],
            "name": "pickWinner",
            "outputs": [],
            "stateMutability": "nonpayable",
            "type": "function"
        },
        {
            "inputs": [],
            "name": "pickWinner_V2",
            "outputs": [],
            "stateMutability": "nonpayable",
            "type": "function"
        },
        {
            "inputs": [
                {
                    "internalType": "uint256",
                    "name": "",
                    "type": "uint256"
                }
            ],
            "name": "players",
            "outputs": [
                {
                    "internalType": "address",
                    "name": "",
                    "type": "address"
                }
            ],
            "stateMutability": "view",
            "type": "function"
        }
    ],
    "bytecode": "608060405234801561001057600080fd5b50600080546001600160a01b03191633179055610474806100326000396000f3fe6080604052600436106100555760003560e01c806334f93c8c1461005a578063481c6a75146100715780635d495aea1461005a5780638b5b9ccc146100ae578063e97dcb62146100d0578063f71d96cb146100d8575b600080fd5b34801561006657600080fd5b5061006f6100f8565b005b34801561007d57600080fd5b50600054610091906001600160a01b031681565b6040516001600160a01b0390911681526020015b60405180910390f35b3480156100ba57600080fd5b506100c361017b565b6040516100a59190610350565b61006f6101dd565b3480156100e457600080fd5b506100916100f336600461039d565b610233565b6000546001600160a01b0316331461010f57600080fd5b6000600161011b61025d565b8154811061012b5761012b6103b6565b60009182526020822001546040516001600160a01b03909116925082914780156108fc02929091818181858888f1935050505015801561016f573d6000803e3d6000fd5b5061017861029f565b50565b606060018054806020026020016040519081016040528092919081815260200182805480156101d357602002820191906000526020600020905b81546001600160a01b031681526001909101906020018083116101b5575b5050505050905090565b662386f26fc1000034116101f057600080fd5b6001805480820182556000919091527fb10e2d527612073b26eecdfd717e6a320cf44b4afac2b0732d9fcbe2b7fa0cf60180546001600160a01b03191633179055565b6001818154811061024357600080fd5b6000918252602090912001546001600160a01b0316905081565b6001805460405160009261027791449142916020016103cc565b6040516020818303038152906040528051906020012060001c61029a919061041c565b905090565b6040805160008082526020820192839052905160018054828255928190526101789390927fb10e2d527612073b26eecdfd717e6a320cf44b4afac2b0732d9fcbe2b7fa0cf69081019291821561032b579160200282015b8281111561032b57825182546001600160a01b0319166001600160a01b039091161782556020909201916001909101906102f6565b5061033792915061033b565b5090565b5b80821115610337576000815560010161033c565b6020808252825182820181905260009190848201906040850190845b818110156103915783516001600160a01b03168352928401929184019160010161036c565b50909695505050505050565b6000602082840312156103af57600080fd5b5035919050565b634e487b7160e01b600052603260045260246000fd5b838152600060208481840152604083018454856000528260002060005b8281101561040e5781546001600160a01b0316845292840192600191820191016103e9565b509198975050505050505050565b60008261043957634e487b7160e01b600052601260045260246000fd5b50069056fea26469706673582212201ebfdb58569cc5d7cf2f2e2ad40de1e51792e17de9f6313f5e98b220d7a9b25464736f6c63430008090033",
    "sourcePath": "c:/Users/User/Documents/DEV/Solidity/Ethereum and Solidity The Complete Developer's Guide/inbox-boilerplate/lottery/contracts/Lottery.sol",
    "compiler": {
        "name": "solc",
        "version": "0.8.9+commit.e5eed63a"
    },
    "functionHashes": {
        "enter()": "e97dcb62",
        "getPlayers()": "8b5b9ccc",
        "manager()": "481c6a75",
        "pickWinner()": "5d495aea",
        "pickWinner_V2()": "34f93c8c",
        "players(uint256)": "f71d96cb"
    },
    "gasEstimates": {
        "creation": {
            "codeDepositCost": "228000",
            "executionCost": "24504",
            "totalCost": "252504"
        },
        "external": {
            "enter()": "48679",
            "getPlayers()": "infinite",
            "manager()": "2326",
            "pickWinner()": "infinite",
            "pickWinner_V2()": "infinite",
            "players(uint256)": "4691"
        },
        "internal": {
            "random()": "infinite",
            "reset()": "infinite"
        }
    }
}